{"contracts/core/RoleRegistry.sol":{"RoleRegistry":{"abi":[{"inputs":[],"stateMutability":"nonpayable","type":"constructor"},{"anonymous":false,"inputs":[{"indexed":true,"internalType":"address","name":"account","type":"address"},{"indexed":true,"internalType":"enum IRoleRegistry.Role","name":"role","type":"uint8"},{"indexed":true,"internalType":"address","name":"grantedBy","type":"address"},{"indexed":false,"internalType":"uint256","name":"timestamp","type":"uint256"}],"name":"RoleGranted","type":"event"},{"anonymous":false,"inputs":[{"indexed":true,"internalType":"address","name":"account","type":"address"},{"indexed":true,"internalType":"enum IRoleRegistry.Role","name":"oldRole","type":"uint8"},{"indexed":true,"internalType":"address","name":"revokedBy","type":"address"},{"indexed":false,"internalType":"uint256","name":"timestamp","type":"uint256"}],"name":"RoleRevoked","type":"event"},{"inputs":[],"name":"admin","outputs":[{"internalType":"address","name":"","type":"address"}],"stateMutability":"view","type":"function"},{"inputs":[{"internalType":"address","name":"account","type":"address"}],"name":"getRole","outputs":[{"internalType":"enum IRoleRegistry.Role","name":"","type":"uint8"}],"stateMutability":"view","type":"function"},{"inputs":[{"internalType":"address","name":"account","type":"address"},{"internalType":"enum IRoleRegistry.Role","name":"role","type":"uint8"}],"name":"grantRole","outputs":[],"stateMutability":"nonpayable","type":"function"},{"inputs":[{"internalType":"address","name":"account","type":"address"},{"internalType":"enum IRoleRegistry.Role","name":"role","type":"uint8"}],"name":"hasRole","outputs":[{"internalType":"bool","name":"","type":"bool"}],"stateMutability":"view","type":"function"},{"inputs":[{"internalType":"address","name":"account","type":"address"}],"name":"isBank","outputs":[{"internalType":"bool","name":"","type":"bool"}],"stateMutability":"view","type":"function"},{"inputs":[{"internalType":"address","name":"account","type":"address"}],"name":"isExporter","outputs":[{"internalType":"bool","name":"","type":"bool"}],"stateMutability":"view","type":"function"},{"inputs":[{"internalType":"address","name":"account","type":"address"}],"name":"isImporter","outputs":[{"internalType":"bool","name":"","type":"bool"}],"stateMutability":"view","type":"function"},{"inputs":[{"internalType":"address","name":"account","type":"address"}],"name":"isLogistics","outputs":[{"internalType":"bool","name":"","type":"bool"}],"stateMutability":"view","type":"function"},{"inputs":[{"internalType":"address","name":"account","type":"address"}],"name":"revokeRole","outputs":[],"stateMutability":"nonpayable","type":"function"}],"evm":{"bytecode":{"linkReferences":{},"object":"608060405234801561001057600080fd5b50600180546001600160a01b0319163390811782556000908152602081905260409020805460ff19168280021790555033600160405142815233907f06e3a091ee85ac118b2ce886e8b1590e9c90a81020629380cab4696197bd580d9060200160405180910390a461060d806100876000396000f3fe608060405234801561001057600080fd5b50600436106100935760003560e01c8063848d177911610066578063848d17791461012557806395a8c58d14610138578063dc5610ed1461014b578063ec676a491461015e578063f851a4401461017157600080fd5b80633e8402361461009857806344276733146100ad57806380e52e3f146100ef5780638305866f14610102575b600080fd5b6100ab6100a636600461053c565b61019c565b005b6100d96100bb366004610577565b6001600160a01b031660009081526020819052604090205460ff1690565b6040516100e691906105af565b60405180910390f35b6100ab6100fd366004610577565b610368565b610115610110366004610577565b610483565b60405190151581526020016100e6565b610115610133366004610577565b6104bc565b61011561014636600461053c565b6104c5565b610115610159366004610577565b61050e565b61011561016c366004610577565b610517565b600154610184906001600160a01b031681565b6040516001600160a01b0390911681526020016100e6565b6001546001600160a01b031633146101e85760405162461bcd60e51b815260206004820152600a60248201526927b7363c9030b236b4b760b11b60448201526064015b60405180910390fd5b6001600160a01b0382166102305760405162461bcd60e51b815260206004820152600f60248201526e496e76616c6964206164647265737360881b60448201526064016101df565b600281600581111561024457610244610599565b14806102615750600381600581111561025f5761025f610599565b145b8061027d5750600481600581111561027b5761027b610599565b145b806102995750600581600581111561029757610297610599565b145b6102d45760405162461bcd60e51b815260206004820152600c60248201526b496e76616c696420726f6c6560a01b60448201526064016101df565b6001600160a01b0382166000908152602081905260409020805482919060ff1916600183600581111561030957610309610599565b02179055503381600581111561032157610321610599565b836001600160a01b03167f06e3a091ee85ac118b2ce886e8b1590e9c90a81020629380cab4696197bd580d4260405161035c91815260200190565b60405180910390a45050565b6001546001600160a01b031633146103af5760405162461bcd60e51b815260206004820152600a60248201526927b7363c9030b236b4b760b11b60448201526064016101df565b6001600160a01b03811660009081526020819052604081205460ff16908160058111156103de576103de610599565b036104155760405162461bcd60e51b81526020600482015260076024820152664e6f20726f6c6560c81b60448201526064016101df565b6001600160a01b0382166000908152602081905260409020805460ff191690553381600581111561044857610448610599565b836001600160a01b03167ff74251865f7e2dd2fd235ea65029093ae550a3bf3f7ae489f9b18c3dde9ef9c64260405161035c91815260200190565b600060055b6001600160a01b03831660009081526020819052604090205460ff1660058111156104b5576104b5610599565b1492915050565b60006004610488565b60008160058111156104d9576104d9610599565b6001600160a01b03841660009081526020819052604090205460ff16600581111561050657610506610599565b149392505050565b60006003610488565b60006002610488565b80356001600160a01b038116811461053757600080fd5b919050565b6000806040838503121561054f57600080fd5b61055883610520565b915060208301356006811061056c57600080fd5b809150509250929050565b60006020828403121561058957600080fd5b61059282610520565b9392505050565b634e487b7160e01b600052602160045260246000fd5b60208101600683106105d157634e487b7160e01b600052602160045260246000fd5b9190529056fea2646970667358221220a930321ba0f3befdf555c154eae807c2857d22d6382c3f6127a870f96fdb891d64736f6c63430008140033","opcodes":"PUSH1 0x80 PUSH1 0x40 MSTORE CALLVALUE DUP1 ISZERO PUSH2 0x10 JUMPI PUSH1 0x0 DUP1 REVERT JUMPDEST POP PUSH1 0x1 DUP1 SLOAD PUSH1 0x1 PUSH1 0x1 PUSH1 0xA0 SHL SUB NOT AND CALLER SWAP1 DUP2 OR DUP3 SSTORE PUSH1 0x0 SWAP1 DUP2 MSTORE PUSH1 0x20 DUP2 SWAP1 MSTORE PUSH1 0x40 SWAP1 KECCAK256 DUP1 SLOAD PUSH1 0xFF NOT AND DUP3 DUP1 MUL OR SWAP1 SSTORE POP CALLER PUSH1 0x1 PUSH1 0x40 MLOAD TIMESTAMP DUP2 MSTORE CALLER SWAP1 PUSH32 0x6E3A091EE85AC118B2CE886E8B1590E9C90A81020629380CAB4696197BD580D SWAP1 PUSH1 0x20 ADD PUSH1 0x40 MLOAD DUP1 SWAP2 SUB SWAP1 LOG4 PUSH2 0x60D DUP1 PUSH2 0x87 PUSH1 0x0 CODECOPY PUSH1 0x0 RETURN INVALID PUSH1 0x80 PUSH1 0x40 MSTORE CALLVALUE DUP1 ISZERO PUSH2 0x10 JUMPI PUSH1 0x0 DUP1 REVERT JUMPDEST POP PUSH1 0x4 CALLDATASIZE LT PUSH2 0x93 JUMPI PUSH1 0x0 CALLDATALOAD PUSH1 0xE0 SHR DUP1 PUSH4 0x848D1779 GT PUSH2 0x66 JUMPI DUP1 PUSH4 0x848D1779 EQ PUSH2 0x125 JUMPI DUP1 PUSH4 0x95A8C58D EQ PUSH2 0x138 JUMPI DUP1 PUSH4 0xDC5610ED EQ PUSH2 0x14B JUMPI DUP1 PUSH4 0xEC676A49 EQ PUSH2 0x15E JUMPI DUP1 PUSH4 0xF851A440 EQ PUSH2 0x171 JUMPI PUSH1 0x0 DUP1 REVERT JUMPDEST DUP1 PUSH4 0x3E840236 EQ PUSH2 0x98 JUMPI DUP1 PUSH4 0x44276733 EQ PUSH2 0xAD JUMPI DUP1 PUSH4 0x80E52E3F EQ PUSH2 0xEF JUMPI DUP1 PUSH4 0x8305866F EQ PUSH2 0x102 JUMPI JUMPDEST PUSH1 0x0 DUP1 REVERT JUMPDEST PUSH2 0xAB PUSH2 0xA6 CALLDATASIZE PUSH1 0x4 PUSH2 0x53C JUMP JUMPDEST PUSH2 0x19C JUMP JUMPDEST STOP JUMPDEST PUSH2 0xD9 PUSH2 0xBB CALLDATASIZE PUSH1 0x4 PUSH2 0x577 JUMP JUMPDEST PUSH1 0x1 PUSH1 0x1 PUSH1 0xA0 SHL SUB AND PUSH1 0x0 SWAP1 DUP2 MSTORE PUSH1 0x20 DUP2 SWAP1 MSTORE PUSH1 0x40 SWAP1 KECCAK256 SLOAD PUSH1 0xFF AND SWAP1 JUMP JUMPDEST PUSH1 0x40 MLOAD PUSH2 0xE6 SWAP2 SWAP1 PUSH2 0x5AF JUMP JUMPDEST PUSH1 0x40 MLOAD DUP1 SWAP2 SUB SWAP1 RETURN JUMPDEST PUSH2 0xAB PUSH2 0xFD CALLDATASIZE PUSH1 0x4 PUSH2 0x577 JUMP JUMPDEST PUSH2 0x368 JUMP JUMPDEST PUSH2 0x115 PUSH2 0x110 CALLDATASIZE PUSH1 0x4 PUSH2 0x577 JUMP JUMPDEST PUSH2 0x483 JUMP JUMPDEST PUSH1 0x40 MLOAD SWAP1 ISZERO ISZERO DUP2 MSTORE PUSH1 0x20 ADD PUSH2 0xE6 JUMP JUMPDEST PUSH2 0x115 PUSH2 0x133 CALLDATASIZE PUSH1 0x4 PUSH2 0x577 JUMP JUMPDEST PUSH2 0x4BC JUMP JUMPDEST PUSH2 0x115 PUSH2 0x146 CALLDATASIZE PUSH1 0x4 PUSH2 0x53C JUMP JUMPDEST PUSH2 0x4C5 JUMP JUMPDEST PUSH2 0x115 PUSH2 0x159 CALLDATASIZE PUSH1 0x4 PUSH2 0x577 JUMP JUMPDEST PUSH2 0x50E JUMP JUMPDEST PUSH2 0x115 PUSH2 0x16C CALLDATASIZE PUSH1 0x4 PUSH2 0x577 JUMP JUMPDEST PUSH2 0x517 JUMP JUMPDEST PUSH1 0x1 SLOAD PUSH2 0x184 SWAP1 PUSH1 0x1 PUSH1 0x1 PUSH1 0xA0 SHL SUB AND DUP2 JUMP JUMPDEST PUSH1 0x40 MLOAD PUSH1 0x1 PUSH1 0x1 PUSH1 0xA0 SHL SUB SWAP1 SWAP2 AND DUP2 MSTORE PUSH1 0x20 ADD PUSH2 0xE6 JUMP JUMPDEST PUSH1 0x1 SLOAD PUSH1 0x1 PUSH1 0x1 PUSH1 0xA0 SHL SUB AND CALLER EQ PUSH2 0x1E8 JUMPI PUSH1 0x40 MLOAD PUSH3 0x461BCD PUSH1 0xE5 SHL DUP2 MSTORE PUSH1 0x20 PUSH1 0x4 DUP3 ADD MSTORE PUSH1 0xA PUSH1 0x24 DUP3 ADD MSTORE PUSH10 0x27B7363C9030B236B4B7 PUSH1 0xB1 SHL PUSH1 0x44 DUP3 ADD MSTORE PUSH1 0x64 ADD JUMPDEST PUSH1 0x40 MLOAD DUP1 SWAP2 SUB SWAP1 REVERT JUMPDEST PUSH1 0x1 PUSH1 0x1 PUSH1 0xA0 SHL SUB DUP3 AND PUSH2 0x230 JUMPI PUSH1 0x40 MLOAD PUSH3 0x461BCD PUSH1 0xE5 SHL DUP2 MSTORE PUSH1 0x20 PUSH1 0x4 DUP3 ADD MSTORE PUSH1 0xF PUSH1 0x24 DUP3 ADD MSTORE PUSH15 0x496E76616C69642061646472657373 PUSH1 0x88 SHL PUSH1 0x44 DUP3 ADD MSTORE PUSH1 0x64 ADD PUSH2 0x1DF JUMP JUMPDEST PUSH1 0x2 DUP2 PUSH1 0x5 DUP2 GT ISZERO PUSH2 0x244 JUMPI PUSH2 0x244 PUSH2 0x599 JUMP JUMPDEST EQ DUP1 PUSH2 0x261 JUMPI POP PUSH1 0x3 DUP2 PUSH1 0x5 DUP2 GT ISZERO PUSH2 0x25F JUMPI PUSH2 0x25F PUSH2 0x599 JUMP JUMPDEST EQ JUMPDEST DUP1 PUSH2 0x27D JUMPI POP PUSH1 0x4 DUP2 PUSH1 0x5 DUP2 GT ISZERO PUSH2 0x27B JUMPI PUSH2 0x27B PUSH2 0x599 JUMP JUMPDEST EQ JUMPDEST DUP1 PUSH2 0x299 JUMPI POP PUSH1 0x5 DUP2 PUSH1 0x5 DUP2 GT ISZERO PUSH2 0x297 JUMPI PUSH2 0x297 PUSH2 0x599 JUMP JUMPDEST EQ JUMPDEST PUSH2 0x2D4 JUMPI PUSH1 0x40 MLOAD PUSH3 0x461BCD PUSH1 0xE5 SHL DUP2 MSTORE PUSH1 0x20 PUSH1 0x4 DUP3 ADD MSTORE PUSH1 0xC PUSH1 0x24 DUP3 ADD MSTORE PUSH12 0x496E76616C696420726F6C65 PUSH1 0xA0 SHL PUSH1 0x44 DUP3 ADD MSTORE PUSH1 0x64 ADD PUSH2 0x1DF JUMP JUMPDEST PUSH1 0x1 PUSH1 0x1 PUSH1 0xA0 SHL SUB DUP3 AND PUSH1 0x0 SWAP1 DUP2 MSTORE PUSH1 0x20 DUP2 SWAP1 MSTORE PUSH1 0x40 SWAP1 KECCAK256 DUP1 SLOAD DUP3 SWAP2 SWAP1 PUSH1 0xFF NOT AND PUSH1 0x1 DUP4 PUSH1 0x5 DUP2 GT ISZERO PUSH2 0x309 JUMPI PUSH2 0x309 PUSH2 0x599 JUMP JUMPDEST MUL OR SWAP1 SSTORE POP CALLER DUP2 PUSH1 0x5 DUP2 GT ISZERO PUSH2 0x321 JUMPI PUSH2 0x321 PUSH2 0x599 JUMP JUMPDEST DUP4 PUSH1 0x1 PUSH1 0x1 PUSH1 0xA0 SHL SUB AND PUSH32 0x6E3A091EE85AC118B2CE886E8B1590E9C90A81020629380CAB4696197BD580D TIMESTAMP PUSH1 0x40 MLOAD PUSH2 0x35C SWAP2 DUP2 MSTORE PUSH1 0x20 ADD SWAP1 JUMP JUMPDEST PUSH1 0x40 MLOAD DUP1 SWAP2 SUB SWAP1 LOG4 POP POP JUMP JUMPDEST PUSH1 0x1 SLOAD PUSH1 0x1 PUSH1 0x1 PUSH1 0xA0 SHL SUB AND CALLER EQ PUSH2 0x3AF JUMPI PUSH1 0x40 MLOAD PUSH3 0x461BCD PUSH1 0xE5 SHL DUP2 MSTORE PUSH1 0x20 PUSH1 0x4 DUP3 ADD MSTORE PUSH1 0xA PUSH1 0x24 DUP3 ADD MSTORE PUSH10 0x27B7363C9030B236B4B7 PUSH1 0xB1 SHL PUSH1 0x44 DUP3 ADD MSTORE PUSH1 0x64 ADD PUSH2 0x1DF JUMP JUMPDEST PUSH1 0x1 PUSH1 0x1 PUSH1 0xA0 SHL SUB DUP2 AND PUSH1 0x0 SWAP1 DUP2 MSTORE PUSH1 0x20 DUP2 SWAP1 MSTORE PUSH1 0x40 DUP2 KECCAK256 SLOAD PUSH1 0xFF AND SWAP1 DUP2 PUSH1 0x5 DUP2 GT ISZERO PUSH2 0x3DE JUMPI PUSH2 0x3DE PUSH2 0x599 JUMP JUMPDEST SUB PUSH2 0x415 JUMPI PUSH1 0x40 MLOAD PUSH3 0x461BCD PUSH1 0xE5 SHL DUP2 MSTORE PUSH1 0x20 PUSH1 0x4 DUP3 ADD MSTORE PUSH1 0x7 PUSH1 0x24 DUP3 ADD MSTORE PUSH7 0x4E6F20726F6C65 PUSH1 0xC8 SHL PUSH1 0x44 DUP3 ADD MSTORE PUSH1 0x64 ADD PUSH2 0x1DF JUMP JUMPDEST PUSH1 0x1 PUSH1 0x1 PUSH1 0xA0 SHL SUB DUP3 AND PUSH1 0x0 SWAP1 DUP2 MSTORE PUSH1 0x20 DUP2 SWAP1 MSTORE PUSH1 0x40 SWAP1 KECCAK256 DUP1 SLOAD PUSH1 0xFF NOT AND SWAP1 SSTORE CALLER DUP2 PUSH1 0x5 DUP2 GT ISZERO PUSH2 0x448 JUMPI PUSH2 0x448 PUSH2 0x599 JUMP JUMPDEST DUP4 PUSH1 0x1 PUSH1 0x1 PUSH1 0xA0 SHL SUB AND PUSH32 0xF74251865F7E2DD2FD235EA65029093AE550A3BF3F7AE489F9B18C3DDE9EF9C6 TIMESTAMP PUSH1 0x40 MLOAD PUSH2 0x35C SWAP2 DUP2 MSTORE PUSH1 0x20 ADD SWAP1 JUMP JUMPDEST PUSH1 0x0 PUSH1 0x5 JUMPDEST PUSH1 0x1 PUSH1 0x1 PUSH1 0xA0 SHL SUB DUP4 AND PUSH1 0x0 SWAP1 DUP2 MSTORE PUSH1 0x20 DUP2 SWAP1 MSTORE PUSH1 0x40 SWAP1 KECCAK256 SLOAD PUSH1 0xFF AND PUSH1 0x5 DUP2 GT ISZERO PUSH2 0x4B5 JUMPI PUSH2 0x4B5 PUSH2 0x599 JUMP JUMPDEST EQ SWAP3 SWAP2 POP POP JUMP JUMPDEST PUSH1 0x0 PUSH1 0x4 PUSH2 0x488 JUMP JUMPDEST PUSH1 0x0 DUP2 PUSH1 0x5 DUP2 GT ISZERO PUSH2 0x4D9 JUMPI PUSH2 0x4D9 PUSH2 0x599 JUMP JUMPDEST PUSH1 0x1 PUSH1 0x1 PUSH1 0xA0 SHL SUB DUP5 AND PUSH1 0x0 SWAP1 DUP2 MSTORE PUSH1 0x20 DUP2 SWAP1 MSTORE PUSH1 0x40 SWAP1 KECCAK256 SLOAD PUSH1 0xFF AND PUSH1 0x5 DUP2 GT ISZERO PUSH2 0x506 JUMPI PUSH2 0x506 PUSH2 0x599 JUMP JUMPDEST EQ SWAP4 SWAP3 POP POP POP JUMP JUMPDEST PUSH1 0x0 PUSH1 0x3 PUSH2 0x488 JUMP JUMPDEST PUSH1 0x0 PUSH1 0x2 PUSH2 0x488 JUMP JUMPDEST DUP1 CALLDATALOAD PUSH1 0x1 PUSH1 0x1 PUSH1 0xA0 SHL SUB DUP2 AND DUP2 EQ PUSH2 0x537 JUMPI PUSH1 0x0 DUP1 REVERT JUMPDEST SWAP2 SWAP1 POP JUMP JUMPDEST PUSH1 0x0 DUP1 PUSH1 0x40 DUP4 DUP6 SUB SLT ISZERO PUSH2 0x54F JUMPI PUSH1 0x0 DUP1 REVERT JUMPDEST PUSH2 0x558 DUP4 PUSH2 0x520 JUMP JUMPDEST SWAP2 POP PUSH1 0x20 DUP4 ADD CALLDATALOAD PUSH1 0x6 DUP2 LT PUSH2 0x56C JUMPI PUSH1 0x0 DUP1 REVERT JUMPDEST DUP1 SWAP2 POP POP SWAP3 POP SWAP3 SWAP1 POP JUMP JUMPDEST PUSH1 0x0 PUSH1 0x20 DUP3 DUP5 SUB SLT ISZERO PUSH2 0x589 JUMPI PUSH1 0x0 DUP1 REVERT JUMPDEST PUSH2 0x592 DUP3 PUSH2 0x520 JUMP JUMPDEST SWAP4 SWAP3 POP POP POP JUMP JUMPDEST PUSH4 0x4E487B71 PUSH1 0xE0 SHL PUSH1 0x0 MSTORE PUSH1 0x21 PUSH1 0x4 MSTORE PUSH1 0x24 PUSH1 0x0 REVERT JUMPDEST PUSH1 0x20 DUP2 ADD PUSH1 0x6 DUP4 LT PUSH2 0x5D1 JUMPI PUSH4 0x4E487B71 PUSH1 0xE0 SHL PUSH1 0x0 MSTORE PUSH1 0x21 PUSH1 0x4 MSTORE PUSH1 0x24 PUSH1 0x0 REVERT JUMPDEST SWAP2 SWAP1 MSTORE SWAP1 JUMP INVALID LOG2 PUSH5 0x6970667358 0x22 SLT KECCAK256 0xA9 ADDRESS ORIGIN SHL LOG0 RETURN 0xBE REVERT CREATE2 SSTORE 0xC1 SLOAD 0xEA 0xE8 SMOD 0xC2 DUP6 PUSH30 0x22D6382C3F6127A870F96FDB891D64736F6C634300081400330000000000 "},"methodIdentifiers":{"admin()":"f851a440","getRole(address)":"44276733","grantRole(address,uint8)":"3e840236","hasRole(address,uint8)":"95a8c58d","isBank(address)":"ec676a49","isExporter(address)":"dc5610ed","isImporter(address)":"848d1779","isLogistics(address)":"8305866f","revokeRole(address)":"80e52e3f"}}}}}