{"contracts/business/SupplyChain.sol":{"SupplyChain":{"abi":[{"inputs":[{"internalType":"address","name":"registry","type":"address"}],"stateMutability":"nonpayable","type":"constructor"},{"anonymous":false,"inputs":[{"indexed":true,"internalType":"uint256","name":"productId","type":"uint256"},{"indexed":true,"internalType":"address","name":"buyer","type":"address"},{"indexed":false,"internalType":"uint256","name":"timestamp","type":"uint256"}],"name":"ProductDelivered","type":"event"},{"anonymous":false,"inputs":[{"indexed":true,"internalType":"uint256","name":"productId","type":"uint256"},{"indexed":true,"internalType":"address","name":"buyer","type":"address"},{"indexed":false,"internalType":"uint256","name":"timestamp","type":"uint256"}],"name":"ProductReceived","type":"event"},{"inputs":[{"internalType":"uint256","name":"productId","type":"uint256"}],"name":"confirmReceived","outputs":[],"stateMutability":"nonpayable","type":"function"},{"inputs":[{"internalType":"string","name":"name","type":"string"}],"name":"createProduct","outputs":[{"internalType":"uint256","name":"","type":"uint256"}],"stateMutability":"nonpayable","type":"function"},{"inputs":[{"internalType":"uint256","name":"id","type":"uint256"}],"name":"getProductStatus","outputs":[{"internalType":"enum ISupplyChain.ProductStatus","name":"","type":"uint8"}],"stateMutability":"view","type":"function"},{"inputs":[{"internalType":"uint256","name":"id","type":"uint256"}],"name":"isProductDelivered","outputs":[{"internalType":"bool","name":"","type":"bool"}],"stateMutability":"view","type":"function"},{"inputs":[{"internalType":"uint256","name":"id","type":"uint256"}],"name":"isProductReceived","outputs":[{"internalType":"bool","name":"","type":"bool"}],"stateMutability":"view","type":"function"},{"inputs":[{"internalType":"uint256","name":"productId","type":"uint256"}],"name":"markDelivered","outputs":[],"stateMutability":"nonpayable","type":"function"},{"inputs":[],"name":"productCount","outputs":[{"internalType":"uint256","name":"","type":"uint256"}],"stateMutability":"view","type":"function"},{"inputs":[{"internalType":"uint256","name":"","type":"uint256"}],"name":"products","outputs":[{"internalType":"uint256","name":"id","type":"uint256"},{"internalType":"string","name":"name","type":"string"},{"internalType":"address","name":"importer","type":"address"},{"internalType":"enum ISupplyChain.ProductStatus","name":"status","type":"uint8"},{"internalType":"uint256","name":"createdAt","type":"uint256"},{"internalType":"uint256","name":"lastUpdated","type":"uint256"}],"stateMutability":"view","type":"function"},{"inputs":[],"name":"roleRegistry","outputs":[{"internalType":"contract IRoleRegistry","name":"","type":"address"}],"stateMutability":"view","type":"function"}],"evm":{"bytecode":{"linkReferences":{},"object":"608060405234801561001057600080fd5b50604051610c9c380380610c9c83398101604081905261002f91610054565b600080546001600160a01b0319166001600160a01b0392909216919091179055610084565b60006020828403121561006657600080fd5b81516001600160a01b038116811461007d57600080fd5b9392505050565b610c09806100936000396000f3fe608060405234801561001057600080fd5b50600436106100935760003560e01c80637acc0b20116100665780637acc0b20146101385780637e793c461461015d578063ae8d908114610180578063e0f6ef8714610193578063eb826a5f1461019c57600080fd5b806302ec06be1461009857806308c73259146100be57806313f6b1bb146100e957806327dac36d14610123575b600080fd5b6100ab6100a6366004610869565b6101af565b6040519081526020015b60405180910390f35b6000546100d1906001600160a01b031681565b6040516001600160a01b0390911681526020016100b5565b6101166100f736600461091a565b600090815260016020526040902060020154600160a01b900460ff1690565b6040516100b5919061095d565b61013661013136600461091a565b610348565b005b61014b61014636600461091a565b610555565b6040516100b596959493929190610971565b61017061016b36600461091a565b610621565b60405190151581526020016100b5565b61017061018e36600461091a565b610656565b6100ab60025481565b6101366101aa36600461091a565b6106ab565b600080546040516395a8c58d60e01b81526004916001600160a01b0316906395a8c58d906101e2903390859081016109f6565b602060405180830381865afa1580156101ff573d6000803e3d6000fd5b505050506040513d601f19601f820116820180604052508101906102239190610a23565b6102485760405162461bcd60e51b815260040161023f90610a45565b60405180910390fd5b600280546000918261025983610a69565b9190505590506040518060c00160405280828152602001858152602001336001600160a01b031681526020016000600281111561029857610298610933565b815242602080830182905260409283019190915260008481526001808352929020835181559083015190918201906102d09082610b13565b506040820151600280830180546001600160a01b039093166001600160a01b031984168117825560608601519391926001600160a81b03199092161790600160a01b90849081111561032457610324610933565b02179055506080820151600382015560a09091015160049091015591505b50919050565b6000546040516395a8c58d60e01b81526004916001600160a01b0316906395a8c58d9061037a903390859081016109f6565b602060405180830381865afa158015610397573d6000803e3d6000fd5b505050506040513d601f19601f820116820180604052508101906103bb9190610a23565b6103d75760405162461bcd60e51b815260040161023f90610a45565b81600254811061041d5760405162461bcd60e51b8152602060048201526011602482015270141c9bd91d58dd081b9bdd08195e1a5cdd607a1b604482015260640161023f565b60008381526001602052604090206002015483906001600160a01b0316331461047f5760405162461bcd60e51b81526020600482015260146024820152732737ba10383937b23ab1ba1034b6b837b93a32b960611b604482015260640161023f565b600084815260016020819052604090912090600282810154600160a01b900460ff16908111156104b1576104b1610933565b146104ee5760405162461bcd60e51b815260206004820152600d60248201526c139bdd0819195b1a5d995c9959609a1b604482015260640161023f565b600281018054600160a11b60ff60a01b1982161790915542600483018190556040519081526001600160a01b039091169086907f15bbac4e671dd682bb8ba3a70a971537f9650428222e657dd6e706a9d3fcf0f29060200160405180910390a35050505050565b60016020819052600091825260409091208054918101805461057690610a90565b80601f01602080910402602001604051908101604052809291908181526020018280546105a290610a90565b80156105ef5780601f106105c4576101008083540402835291602001916105ef565b820191906000526020600020905b8154815290600101906020018083116105d257829003601f168201915b505050506002830154600384015460049094015492936001600160a01b03821693600160a01b90920460ff1692509086565b6000818152600160205260408120600290810154600160a01b900460ff168181111561064f5761064f610933565b1492915050565b6000818152600160208190526040822060020154600160a01b900460ff169081600281111561068757610687610933565b14806106a4575060028160028111156106a2576106a2610933565b145b9392505050565b6000546040516395a8c58d60e01b81526005916001600160a01b0316906395a8c58d906106de90339085906004016109f6565b602060405180830381865afa1580156106fb573d6000803e3d6000fd5b505050506040513d601f19601f8201168201806040525081019061071f9190610a23565b61073b5760405162461bcd60e51b815260040161023f90610a45565b8160025481106107815760405162461bcd60e51b8152602060048201526011602482015270141c9bd91d58dd081b9bdd08195e1a5cdd607a1b604482015260640161023f565b600083815260016020526040812090600282810154600160a01b900460ff16908111156107b0576107b0610933565b146107ed5760405162461bcd60e51b815260206004820152600d60248201526c496e76616c696420737461746560981b604482015260640161023f565b600281018054600160a01b60ff60a01b1982161790915542600483018190556040519081526001600160a01b039091169085907fd49ab30b3adbc30566af251187676161cd05b11d774c70891a581b12f9c160749060200160405180910390a350505050565b634e487b7160e01b600052604160045260246000fd5b60006020828403121561087b57600080fd5b813567ffffffffffffffff8082111561089357600080fd5b818401915084601f8301126108a757600080fd5b8135818111156108b9576108b9610853565b604051601f8201601f19908116603f011681019083821181831017156108e1576108e1610853565b816040528281528760208487010111156108fa57600080fd5b826020860160208301376000928101602001929092525095945050505050565b60006020828403121561092c57600080fd5b5035919050565b634e487b7160e01b600052602160045260246000fd5b6003811061095957610959610933565b9052565b6020810161096b8284610949565b92915050565b8681526000602060c08184015287518060c085015260005b818110156109a55789810183015185820160e001528201610989565b50600060e0828601015260e0601f19601f830116850101925050506109d560408301876001600160a01b03169052565b6109e26060830186610949565b608082019390935260a00152949350505050565b6001600160a01b03831681526040810160068310610a1657610a16610933565b8260208301529392505050565b600060208284031215610a3557600080fd5b815180151581146106a457600080fd5b6020808252600a908201526957726f6e6720726f6c6560b01b604082015260600190565b600060018201610a8957634e487b7160e01b600052601160045260246000fd5b5060010190565b600181811c90821680610aa457607f821691505b60208210810361034257634e487b7160e01b600052602260045260246000fd5b601f821115610b0e57600081815260208120601f850160051c81016020861015610aeb5750805b601f850160051c820191505b81811015610b0a57828155600101610af7565b5050505b505050565b815167ffffffffffffffff811115610b2d57610b2d610853565b610b4181610b3b8454610a90565b84610ac4565b602080601f831160018114610b765760008415610b5e5750858301515b600019600386901b1c1916600185901b178555610b0a565b600085815260208120601f198616915b82811015610ba557888601518255948401946001909101908401610b86565b5085821015610bc35787850151600019600388901b60f8161c191681555b5050505050600190811b0190555056fea264697066735822122061133d93f6a0468f386530dacd78c7fa8b070b1f57ac7d537ffbde24b99c4aec64736f6c63430008140033","opcodes":"PUSH1 0x80 PUSH1 0x40 MSTORE CALLVALUE DUP1 ISZERO PUSH2 0x10 JUMPI PUSH1 0x0 DUP1 REVERT JUMPDEST POP PUSH1 0x40 MLOAD PUSH2 0xC9C CODESIZE SUB DUP1 PUSH2 0xC9C DUP4 CODECOPY DUP2 ADD PUSH1 0x40 DUP2 SWAP1 MSTORE PUSH2 0x2F SWAP2 PUSH2 0x54 JUMP JUMPDEST PUSH1 0x0 DUP1 SLOAD PUSH1 0x1 PUSH1 0x1 PUSH1 0xA0 SHL SUB NOT AND PUSH1 0x1 PUSH1 0x1 PUSH1 0xA0 SHL SUB SWAP3 SWAP1 SWAP3 AND SWAP2 SWAP1 SWAP2 OR SWAP1 SSTORE PUSH2 0x84 JUMP JUMPDEST PUSH1 0x0 PUSH1 0x20 DUP3 DUP5 SUB SLT ISZERO PUSH2 0x66 JUMPI PUSH1 0x0 DUP1 REVERT JUMPDEST DUP2 MLOAD PUSH1 0x1 PUSH1 0x1 PUSH1 0xA0 SHL SUB DUP2 AND DUP2 EQ PUSH2 0x7D JUMPI PUSH1 0x0 DUP1 REVERT JUMPDEST SWAP4 SWAP3 POP POP POP JUMP JUMPDEST PUSH2 0xC09 DUP1 PUSH2 0x93 PUSH1 0x0 CODECOPY PUSH1 0x0 RETURN INVALID PUSH1 0x80 PUSH1 0x40 MSTORE CALLVALUE DUP1 ISZERO PUSH2 0x10 JUMPI PUSH1 0x0 DUP1 REVERT JUMPDEST POP PUSH1 0x4 CALLDATASIZE LT PUSH2 0x93 JUMPI PUSH1 0x0 CALLDATALOAD PUSH1 0xE0 SHR DUP1 PUSH4 0x7ACC0B20 GT PUSH2 0x66 JUMPI DUP1 PUSH4 0x7ACC0B20 EQ PUSH2 0x138 JUMPI DUP1 PUSH4 0x7E793C46 EQ PUSH2 0x15D JUMPI DUP1 PUSH4 0xAE8D9081 EQ PUSH2 0x180 JUMPI DUP1 PUSH4 0xE0F6EF87 EQ PUSH2 0x193 JUMPI DUP1 PUSH4 0xEB826A5F EQ PUSH2 0x19C JUMPI PUSH1 0x0 DUP1 REVERT JUMPDEST DUP1 PUSH4 0x2EC06BE EQ PUSH2 0x98 JUMPI DUP1 PUSH4 0x8C73259 EQ PUSH2 0xBE JUMPI DUP1 PUSH4 0x13F6B1BB EQ PUSH2 0xE9 JUMPI DUP1 PUSH4 0x27DAC36D EQ PUSH2 0x123 JUMPI JUMPDEST PUSH1 0x0 DUP1 REVERT JUMPDEST PUSH2 0xAB PUSH2 0xA6 CALLDATASIZE PUSH1 0x4 PUSH2 0x869 JUMP JUMPDEST PUSH2 0x1AF JUMP JUMPDEST PUSH1 0x40 MLOAD SWAP1 DUP2 MSTORE PUSH1 0x20 ADD JUMPDEST PUSH1 0x40 MLOAD DUP1 SWAP2 SUB SWAP1 RETURN JUMPDEST PUSH1 0x0 SLOAD PUSH2 0xD1 SWAP1 PUSH1 0x1 PUSH1 0x1 PUSH1 0xA0 SHL SUB AND DUP2 JUMP JUMPDEST PUSH1 0x40 MLOAD PUSH1 0x1 PUSH1 0x1 PUSH1 0xA0 SHL SUB SWAP1 SWAP2 AND DUP2 MSTORE PUSH1 0x20 ADD PUSH2 0xB5 JUMP JUMPDEST PUSH2 0x116 PUSH2 0xF7 CALLDATASIZE PUSH1 0x4 PUSH2 0x91A JUMP JUMPDEST PUSH1 0x0 SWAP1 DUP2 MSTORE PUSH1 0x1 PUSH1 0x20 MSTORE PUSH1 0x40 SWAP1 KECCAK256 PUSH1 0x2 ADD SLOAD PUSH1 0x1 PUSH1 0xA0 SHL SWAP1 DIV PUSH1 0xFF AND SWAP1 JUMP JUMPDEST PUSH1 0x40 MLOAD PUSH2 0xB5 SWAP2 SWAP1 PUSH2 0x95D JUMP JUMPDEST PUSH2 0x136 PUSH2 0x131 CALLDATASIZE PUSH1 0x4 PUSH2 0x91A JUMP JUMPDEST PUSH2 0x348 JUMP JUMPDEST STOP JUMPDEST PUSH2 0x14B PUSH2 0x146 CALLDATASIZE PUSH1 0x4 PUSH2 0x91A JUMP JUMPDEST PUSH2 0x555 JUMP JUMPDEST PUSH1 0x40 MLOAD PUSH2 0xB5 SWAP7 SWAP6 SWAP5 SWAP4 SWAP3 SWAP2 SWAP1 PUSH2 0x971 JUMP JUMPDEST PUSH2 0x170 PUSH2 0x16B CALLDATASIZE PUSH1 0x4 PUSH2 0x91A JUMP JUMPDEST PUSH2 0x621 JUMP JUMPDEST PUSH1 0x40 MLOAD SWAP1 ISZERO ISZERO DUP2 MSTORE PUSH1 0x20 ADD PUSH2 0xB5 JUMP JUMPDEST PUSH2 0x170 PUSH2 0x18E CALLDATASIZE PUSH1 0x4 PUSH2 0x91A JUMP JUMPDEST PUSH2 0x656 JUMP JUMPDEST PUSH2 0xAB PUSH1 0x2 SLOAD DUP2 JUMP JUMPDEST PUSH2 0x136 PUSH2 0x1AA CALLDATASIZE PUSH1 0x4 PUSH2 0x91A JUMP JUMPDEST PUSH2 0x6AB JUMP JUMPDEST PUSH1 0x0 DUP1 SLOAD PUSH1 0x40 MLOAD PUSH4 0x95A8C58D PUSH1 0xE0 SHL DUP2 MSTORE PUSH1 0x4 SWAP2 PUSH1 0x1 PUSH1 0x1 PUSH1 0xA0 SHL SUB AND SWAP1 PUSH4 0x95A8C58D SWAP1 PUSH2 0x1E2 SWAP1 CALLER SWAP1 DUP6 SWAP1 DUP2 ADD PUSH2 0x9F6 JUMP JUMPDEST PUSH1 0x20 PUSH1 0x40 MLOAD DUP1 DUP4 SUB DUP2 DUP7 GAS STATICCALL ISZERO DUP1 ISZERO PUSH2 0x1FF JUMPI RETURNDATASIZE PUSH1 0x0 DUP1 RETURNDATACOPY RETURNDATASIZE PUSH1 0x0 REVERT JUMPDEST POP POP POP POP PUSH1 0x40 MLOAD RETURNDATASIZE PUSH1 0x1F NOT PUSH1 0x1F DUP3 ADD AND DUP3 ADD DUP1 PUSH1 0x40 MSTORE POP DUP2 ADD SWAP1 PUSH2 0x223 SWAP2 SWAP1 PUSH2 0xA23 JUMP JUMPDEST PUSH2 0x248 JUMPI PUSH1 0x40 MLOAD PUSH3 0x461BCD PUSH1 0xE5 SHL DUP2 MSTORE PUSH1 0x4 ADD PUSH2 0x23F SWAP1 PUSH2 0xA45 JUMP JUMPDEST PUSH1 0x40 MLOAD DUP1 SWAP2 SUB SWAP1 REVERT JUMPDEST PUSH1 0x2 DUP1 SLOAD PUSH1 0x0 SWAP2 DUP3 PUSH2 0x259 DUP4 PUSH2 0xA69 JUMP JUMPDEST SWAP2 SWAP1 POP SSTORE SWAP1 POP PUSH1 0x40 MLOAD DUP1 PUSH1 0xC0 ADD PUSH1 0x40 MSTORE DUP1 DUP3 DUP2 MSTORE PUSH1 0x20 ADD DUP6 DUP2 MSTORE PUSH1 0x20 ADD CALLER PUSH1 0x1 PUSH1 0x1 PUSH1 0xA0 SHL SUB AND DUP2 MSTORE PUSH1 0x20 ADD PUSH1 0x0 PUSH1 0x2 DUP2 GT ISZERO PUSH2 0x298 JUMPI PUSH2 0x298 PUSH2 0x933 JUMP JUMPDEST DUP2 MSTORE TIMESTAMP PUSH1 0x20 DUP1 DUP4 ADD DUP3 SWAP1 MSTORE PUSH1 0x40 SWAP3 DUP4 ADD SWAP2 SWAP1 SWAP2 MSTORE PUSH1 0x0 DUP5 DUP2 MSTORE PUSH1 0x1 DUP1 DUP4 MSTORE SWAP3 SWAP1 KECCAK256 DUP4 MLOAD DUP2 SSTORE SWAP1 DUP4 ADD MLOAD SWAP1 SWAP2 DUP3 ADD SWAP1 PUSH2 0x2D0 SWAP1 DUP3 PUSH2 0xB13 JUMP JUMPDEST POP PUSH1 0x40 DUP3 ADD MLOAD PUSH1 0x2 DUP1 DUP4 ADD DUP1 SLOAD PUSH1 0x1 PUSH1 0x1 PUSH1 0xA0 SHL SUB SWAP1 SWAP4 AND PUSH1 0x1 PUSH1 0x1 PUSH1 0xA0 SHL SUB NOT DUP5 AND DUP2 OR DUP3 SSTORE PUSH1 0x60 DUP7 ADD MLOAD SWAP4 SWAP2 SWAP3 PUSH1 0x1 PUSH1 0x1 PUSH1 0xA8 SHL SUB NOT SWAP1 SWAP3 AND OR SWAP1 PUSH1 0x1 PUSH1 0xA0 SHL SWAP1 DUP5 SWAP1 DUP2 GT ISZERO PUSH2 0x324 JUMPI PUSH2 0x324 PUSH2 0x933 JUMP JUMPDEST MUL OR SWAP1 SSTORE POP PUSH1 0x80 DUP3 ADD MLOAD PUSH1 0x3 DUP3 ADD SSTORE PUSH1 0xA0 SWAP1 SWAP2 ADD MLOAD PUSH1 0x4 SWAP1 SWAP2 ADD SSTORE SWAP2 POP JUMPDEST POP SWAP2 SWAP1 POP JUMP JUMPDEST PUSH1 0x0 SLOAD PUSH1 0x40 MLOAD PUSH4 0x95A8C58D PUSH1 0xE0 SHL DUP2 MSTORE PUSH1 0x4 SWAP2 PUSH1 0x1 PUSH1 0x1 PUSH1 0xA0 SHL SUB AND SWAP1 PUSH4 0x95A8C58D SWAP1 PUSH2 0x37A SWAP1 CALLER SWAP1 DUP6 SWAP1 DUP2 ADD PUSH2 0x9F6 JUMP JUMPDEST PUSH1 0x20 PUSH1 0x40 MLOAD DUP1 DUP4 SUB DUP2 DUP7 GAS STATICCALL ISZERO DUP1 ISZERO PUSH2 0x397 JUMPI RETURNDATASIZE PUSH1 0x0 DUP1 RETURNDATACOPY RETURNDATASIZE PUSH1 0x0 REVERT JUMPDEST POP POP POP POP PUSH1 0x40 MLOAD RETURNDATASIZE PUSH1 0x1F NOT PUSH1 0x1F DUP3 ADD AND DUP3 ADD DUP1 PUSH1 0x40 MSTORE POP DUP2 ADD SWAP1 PUSH2 0x3BB SWAP2 SWAP1 PUSH2 0xA23 JUMP JUMPDEST PUSH2 0x3D7 JUMPI PUSH1 0x40 MLOAD PUSH3 0x461BCD PUSH1 0xE5 SHL DUP2 MSTORE PUSH1 0x4 ADD PUSH2 0x23F SWAP1 PUSH2 0xA45 JUMP JUMPDEST DUP2 PUSH1 0x2 SLOAD DUP2 LT PUSH2 0x41D JUMPI PUSH1 0x40 MLOAD PUSH3 0x461BCD PUSH1 0xE5 SHL DUP2 MSTORE PUSH1 0x20 PUSH1 0x4 DUP3 ADD MSTORE PUSH1 0x11 PUSH1 0x24 DUP3 ADD MSTORE PUSH17 0x141C9BD91D58DD081B9BDD08195E1A5CDD PUSH1 0x7A SHL PUSH1 0x44 DUP3 ADD MSTORE PUSH1 0x64 ADD PUSH2 0x23F JUMP JUMPDEST PUSH1 0x0 DUP4 DUP2 MSTORE PUSH1 0x1 PUSH1 0x20 MSTORE PUSH1 0x40 SWAP1 KECCAK256 PUSH1 0x2 ADD SLOAD DUP4 SWAP1 PUSH1 0x1 PUSH1 0x1 PUSH1 0xA0 SHL SUB AND CALLER EQ PUSH2 0x47F JUMPI PUSH1 0x40 MLOAD PUSH3 0x461BCD PUSH1 0xE5 SHL DUP2 MSTORE PUSH1 0x20 PUSH1 0x4 DUP3 ADD MSTORE PUSH1 0x14 PUSH1 0x24 DUP3 ADD MSTORE PUSH20 0x2737BA10383937B23AB1BA1034B6B837B93A32B9 PUSH1 0x61 SHL PUSH1 0x44 DUP3 ADD MSTORE PUSH1 0x64 ADD PUSH2 0x23F JUMP JUMPDEST PUSH1 0x0 DUP5 DUP2 MSTORE PUSH1 0x1 PUSH1 0x20 DUP2 SWAP1 MSTORE PUSH1 0x40 SWAP1 SWAP2 KECCAK256 SWAP1 PUSH1 0x2 DUP3 DUP2 ADD SLOAD PUSH1 0x1 PUSH1 0xA0 SHL SWAP1 DIV PUSH1 0xFF AND SWAP1 DUP2 GT ISZERO PUSH2 0x4B1 JUMPI PUSH2 0x4B1 PUSH2 0x933 JUMP JUMPDEST EQ PUSH2 0x4EE JUMPI PUSH1 0x40 MLOAD PUSH3 0x461BCD PUSH1 0xE5 SHL DUP2 MSTORE PUSH1 0x20 PUSH1 0x4 DUP3 ADD MSTORE PUSH1 0xD PUSH1 0x24 DUP3 ADD MSTORE PUSH13 0x139BDD0819195B1A5D995C9959 PUSH1 0x9A SHL PUSH1 0x44 DUP3 ADD MSTORE PUSH1 0x64 ADD PUSH2 0x23F JUMP JUMPDEST PUSH1 0x2 DUP2 ADD DUP1 SLOAD PUSH1 0x1 PUSH1 0xA1 SHL PUSH1 0xFF PUSH1 0xA0 SHL NOT DUP3 AND OR SWAP1 SWAP2 SSTORE TIMESTAMP PUSH1 0x4 DUP4 ADD DUP2 SWAP1 SSTORE PUSH1 0x40 MLOAD SWAP1 DUP2 MSTORE PUSH1 0x1 PUSH1 0x1 PUSH1 0xA0 SHL SUB SWAP1 SWAP2 AND SWAP1 DUP7 SWAP1 PUSH32 0x15BBAC4E671DD682BB8BA3A70A971537F9650428222E657DD6E706A9D3FCF0F2 SWAP1 PUSH1 0x20 ADD PUSH1 0x40 MLOAD DUP1 SWAP2 SUB SWAP1 LOG3 POP POP POP POP POP JUMP JUMPDEST PUSH1 0x1 PUSH1 0x20 DUP2 SWAP1 MSTORE PUSH1 0x0 SWAP2 DUP3 MSTORE PUSH1 0x40 SWAP1 SWAP2 KECCAK256 DUP1 SLOAD SWAP2 DUP2 ADD DUP1 SLOAD PUSH2 0x576 SWAP1 PUSH2 0xA90 JUMP JUMPDEST DUP1 PUSH1 0x1F ADD PUSH1 0x20 DUP1 SWAP2 DIV MUL PUSH1 0x20 ADD PUSH1 0x40 MLOAD SWAP1 DUP2 ADD PUSH1 0x40 MSTORE DUP1 SWAP3 SWAP2 SWAP1 DUP2 DUP2 MSTORE PUSH1 0x20 ADD DUP3 DUP1 SLOAD PUSH2 0x5A2 SWAP1 PUSH2 0xA90 JUMP JUMPDEST DUP1 ISZERO PUSH2 0x5EF JUMPI DUP1 PUSH1 0x1F LT PUSH2 0x5C4 JUMPI PUSH2 0x100 DUP1 DUP4 SLOAD DIV MUL DUP4 MSTORE SWAP2 PUSH1 0x20 ADD SWAP2 PUSH2 0x5EF JUMP JUMPDEST DUP3 ADD SWAP2 SWAP1 PUSH1 0x0 MSTORE PUSH1 0x20 PUSH1 0x0 KECCAK256 SWAP1 JUMPDEST DUP2 SLOAD DUP2 MSTORE SWAP1 PUSH1 0x1 ADD SWAP1 PUSH1 0x20 ADD DUP1 DUP4 GT PUSH2 0x5D2 JUMPI DUP3 SWAP1 SUB PUSH1 0x1F AND DUP3 ADD SWAP2 JUMPDEST POP POP POP POP PUSH1 0x2 DUP4 ADD SLOAD PUSH1 0x3 DUP5 ADD SLOAD PUSH1 0x4 SWAP1 SWAP5 ADD SLOAD SWAP3 SWAP4 PUSH1 0x1 PUSH1 0x1 PUSH1 0xA0 SHL SUB DUP3 AND SWAP4 PUSH1 0x1 PUSH1 0xA0 SHL SWAP1 SWAP3 DIV PUSH1 0xFF AND SWAP3 POP SWAP1 DUP7 JUMP JUMPDEST PUSH1 0x0 DUP2 DUP2 MSTORE PUSH1 0x1 PUSH1 0x20 MSTORE PUSH1 0x40 DUP2 KECCAK256 PUSH1 0x2 SWAP1 DUP2 ADD SLOAD PUSH1 0x1 PUSH1 0xA0 SHL SWAP1 DIV PUSH1 0xFF AND DUP2 DUP2 GT ISZERO PUSH2 0x64F JUMPI PUSH2 0x64F PUSH2 0x933 JUMP JUMPDEST EQ SWAP3 SWAP2 POP POP JUMP JUMPDEST PUSH1 0x0 DUP2 DUP2 MSTORE PUSH1 0x1 PUSH1 0x20 DUP2 SWAP1 MSTORE PUSH1 0x40 DUP3 KECCAK256 PUSH1 0x2 ADD SLOAD PUSH1 0x1 PUSH1 0xA0 SHL SWAP1 DIV PUSH1 0xFF AND SWAP1 DUP2 PUSH1 0x2 DUP2 GT ISZERO PUSH2 0x687 JUMPI PUSH2 0x687 PUSH2 0x933 JUMP JUMPDEST EQ DUP1 PUSH2 0x6A4 JUMPI POP PUSH1 0x2 DUP2 PUSH1 0x2 DUP2 GT ISZERO PUSH2 0x6A2 JUMPI PUSH2 0x6A2 PUSH2 0x933 JUMP JUMPDEST EQ JUMPDEST SWAP4 SWAP3 POP POP POP JUMP JUMPDEST PUSH1 0x0 SLOAD PUSH1 0x40 MLOAD PUSH4 0x95A8C58D PUSH1 0xE0 SHL DUP2 MSTORE PUSH1 0x5 SWAP2 PUSH1 0x1 PUSH1 0x1 PUSH1 0xA0 SHL SUB AND SWAP1 PUSH4 0x95A8C58D SWAP1 PUSH2 0x6DE SWAP1 CALLER SWAP1 DUP6 SWAP1 PUSH1 0x4 ADD PUSH2 0x9F6 JUMP JUMPDEST PUSH1 0x20 PUSH1 0x40 MLOAD DUP1 DUP4 SUB DUP2 DUP7 GAS STATICCALL ISZERO DUP1 ISZERO PUSH2 0x6FB JUMPI RETURNDATASIZE PUSH1 0x0 DUP1 RETURNDATACOPY RETURNDATASIZE PUSH1 0x0 REVERT JUMPDEST POP POP POP POP PUSH1 0x40 MLOAD RETURNDATASIZE PUSH1 0x1F NOT PUSH1 0x1F DUP3 ADD AND DUP3 ADD DUP1 PUSH1 0x40 MSTORE POP DUP2 ADD SWAP1 PUSH2 0x71F SWAP2 SWAP1 PUSH2 0xA23 JUMP JUMPDEST PUSH2 0x73B JUMPI PUSH1 0x40 MLOAD PUSH3 0x461BCD PUSH1 0xE5 SHL DUP2 MSTORE PUSH1 0x4 ADD PUSH2 0x23F SWAP1 PUSH2 0xA45 JUMP JUMPDEST DUP2 PUSH1 0x2 SLOAD DUP2 LT PUSH2 0x781 JUMPI PUSH1 0x40 MLOAD PUSH3 0x461BCD PUSH1 0xE5 SHL DUP2 MSTORE PUSH1 0x20 PUSH1 0x4 DUP3 ADD MSTORE PUSH1 0x11 PUSH1 0x24 DUP3 ADD MSTORE PUSH17 0x141C9BD91D58DD081B9BDD08195E1A5CDD PUSH1 0x7A SHL PUSH1 0x44 DUP3 ADD MSTORE PUSH1 0x64 ADD PUSH2 0x23F JUMP JUMPDEST PUSH1 0x0 DUP4 DUP2 MSTORE PUSH1 0x1 PUSH1 0x20 MSTORE PUSH1 0x40 DUP2 KECCAK256 SWAP1 PUSH1 0x2 DUP3 DUP2 ADD SLOAD PUSH1 0x1 PUSH1 0xA0 SHL SWAP1 DIV PUSH1 0xFF AND SWAP1 DUP2 GT ISZERO PUSH2 0x7B0 JUMPI PUSH2 0x7B0 PUSH2 0x933 JUMP JUMPDEST EQ PUSH2 0x7ED JUMPI PUSH1 0x40 MLOAD PUSH3 0x461BCD PUSH1 0xE5 SHL DUP2 MSTORE PUSH1 0x20 PUSH1 0x4 DUP3 ADD MSTORE PUSH1 0xD PUSH1 0x24 DUP3 ADD MSTORE PUSH13 0x496E76616C6964207374617465 PUSH1 0x98 SHL PUSH1 0x44 DUP3 ADD MSTORE PUSH1 0x64 ADD PUSH2 0x23F JUMP JUMPDEST PUSH1 0x2 DUP2 ADD DUP1 SLOAD PUSH1 0x1 PUSH1 0xA0 SHL PUSH1 0xFF PUSH1 0xA0 SHL NOT DUP3 AND OR SWAP1 SWAP2 SSTORE TIMESTAMP PUSH1 0x4 DUP4 ADD DUP2 SWAP1 SSTORE PUSH1 0x40 MLOAD SWAP1 DUP2 MSTORE PUSH1 0x1 PUSH1 0x1 PUSH1 0xA0 SHL SUB SWAP1 SWAP2 AND SWAP1 DUP6 SWAP1 PUSH32 0xD49AB30B3ADBC30566AF251187676161CD05B11D774C70891A581B12F9C16074 SWAP1 PUSH1 0x20 ADD PUSH1 0x40 MLOAD DUP1 SWAP2 SUB SWAP1 LOG3 POP POP POP POP JUMP JUMPDEST PUSH4 0x4E487B71 PUSH1 0xE0 SHL PUSH1 0x0 MSTORE PUSH1 0x41 PUSH1 0x4 MSTORE PUSH1 0x24 PUSH1 0x0 REVERT JUMPDEST PUSH1 0x0 PUSH1 0x20 DUP3 DUP5 SUB SLT ISZERO PUSH2 0x87B JUMPI PUSH1 0x0 DUP1 REVERT JUMPDEST DUP2 CALLDATALOAD PUSH8 0xFFFFFFFFFFFFFFFF DUP1 DUP3 GT ISZERO PUSH2 0x893 JUMPI PUSH1 0x0 DUP1 REVERT JUMPDEST DUP2 DUP5 ADD SWAP2 POP DUP5 PUSH1 0x1F DUP4 ADD SLT PUSH2 0x8A7 JUMPI PUSH1 0x0 DUP1 REVERT JUMPDEST DUP2 CALLDATALOAD DUP2 DUP2 GT ISZERO PUSH2 0x8B9 JUMPI PUSH2 0x8B9 PUSH2 0x853 JUMP JUMPDEST PUSH1 0x40 MLOAD PUSH1 0x1F DUP3 ADD PUSH1 0x1F NOT SWAP1 DUP2 AND PUSH1 0x3F ADD AND DUP2 ADD SWAP1 DUP4 DUP3 GT DUP2 DUP4 LT OR ISZERO PUSH2 0x8E1 JUMPI PUSH2 0x8E1 PUSH2 0x853 JUMP JUMPDEST DUP2 PUSH1 0x40 MSTORE DUP3 DUP2 MSTORE DUP8 PUSH1 0x20 DUP5 DUP8 ADD ADD GT ISZERO PUSH2 0x8FA JUMPI PUSH1 0x0 DUP1 REVERT JUMPDEST DUP3 PUSH1 0x20 DUP7 ADD PUSH1 0x20 DUP4 ADD CALLDATACOPY PUSH1 0x0 SWAP3 DUP2 ADD PUSH1 0x20 ADD SWAP3 SWAP1 SWAP3 MSTORE POP SWAP6 SWAP5 POP POP POP POP POP JUMP JUMPDEST PUSH1 0x0 PUSH1 0x20 DUP3 DUP5 SUB SLT ISZERO PUSH2 0x92C JUMPI PUSH1 0x0 DUP1 REVERT JUMPDEST POP CALLDATALOAD SWAP2 SWAP1 POP JUMP JUMPDEST PUSH4 0x4E487B71 PUSH1 0xE0 SHL PUSH1 0x0 MSTORE PUSH1 0x21 PUSH1 0x4 MSTORE PUSH1 0x24 PUSH1 0x0 REVERT JUMPDEST PUSH1 0x3 DUP2 LT PUSH2 0x959 JUMPI PUSH2 0x959 PUSH2 0x933 JUMP JUMPDEST SWAP1 MSTORE JUMP JUMPDEST PUSH1 0x20 DUP2 ADD PUSH2 0x96B DUP3 DUP5 PUSH2 0x949 JUMP JUMPDEST SWAP3 SWAP2 POP POP JUMP JUMPDEST DUP7 DUP2 MSTORE PUSH1 0x0 PUSH1 0x20 PUSH1 0xC0 DUP2 DUP5 ADD MSTORE DUP8 MLOAD DUP1 PUSH1 0xC0 DUP6 ADD MSTORE PUSH1 0x0 JUMPDEST DUP2 DUP2 LT ISZERO PUSH2 0x9A5 JUMPI DUP10 DUP2 ADD DUP4 ADD MLOAD DUP6 DUP3 ADD PUSH1 0xE0 ADD MSTORE DUP3 ADD PUSH2 0x989 JUMP JUMPDEST POP PUSH1 0x0 PUSH1 0xE0 DUP3 DUP7 ADD ADD MSTORE PUSH1 0xE0 PUSH1 0x1F NOT PUSH1 0x1F DUP4 ADD AND DUP6 ADD ADD SWAP3 POP POP POP PUSH2 0x9D5 PUSH1 0x40 DUP4 ADD DUP8 PUSH1 0x1 PUSH1 0x1 PUSH1 0xA0 SHL SUB AND SWAP1 MSTORE JUMP JUMPDEST PUSH2 0x9E2 PUSH1 0x60 DUP4 ADD DUP7 PUSH2 0x949 JUMP JUMPDEST PUSH1 0x80 DUP3 ADD SWAP4 SWAP1 SWAP4 MSTORE PUSH1 0xA0 ADD MSTORE SWAP5 SWAP4 POP POP POP POP JUMP JUMPDEST PUSH1 0x1 PUSH1 0x1 PUSH1 0xA0 SHL SUB DUP4 AND DUP2 MSTORE PUSH1 0x40 DUP2 ADD PUSH1 0x6 DUP4 LT PUSH2 0xA16 JUMPI PUSH2 0xA16 PUSH2 0x933 JUMP JUMPDEST DUP3 PUSH1 0x20 DUP4 ADD MSTORE SWAP4 SWAP3 POP POP POP JUMP JUMPDEST PUSH1 0x0 PUSH1 0x20 DUP3 DUP5 SUB SLT ISZERO PUSH2 0xA35 JUMPI PUSH1 0x0 DUP1 REVERT JUMPDEST DUP2 MLOAD DUP1 ISZERO ISZERO DUP2 EQ PUSH2 0x6A4 JUMPI PUSH1 0x0 DUP1 REVERT JUMPDEST PUSH1 0x20 DUP1 DUP3 MSTORE PUSH1 0xA SWAP1 DUP3 ADD MSTORE PUSH10 0x57726F6E6720726F6C65 PUSH1 0xB0 SHL PUSH1 0x40 DUP3 ADD MSTORE PUSH1 0x60 ADD SWAP1 JUMP JUMPDEST PUSH1 0x0 PUSH1 0x1 DUP3 ADD PUSH2 0xA89 JUMPI PUSH4 0x4E487B71 PUSH1 0xE0 SHL PUSH1 0x0 MSTORE PUSH1 0x11 PUSH1 0x4 MSTORE PUSH1 0x24 PUSH1 0x0 REVERT JUMPDEST POP PUSH1 0x1 ADD SWAP1 JUMP JUMPDEST PUSH1 0x1 DUP2 DUP2 SHR SWAP1 DUP3 AND DUP1 PUSH2 0xAA4 JUMPI PUSH1 0x7F DUP3 AND SWAP2 POP JUMPDEST PUSH1 0x20 DUP3 LT DUP2 SUB PUSH2 0x342 JUMPI PUSH4 0x4E487B71 PUSH1 0xE0 SHL PUSH1 0x0 MSTORE PUSH1 0x22 PUSH1 0x4 MSTORE PUSH1 0x24 PUSH1 0x0 REVERT JUMPDEST PUSH1 0x1F DUP3 GT ISZERO PUSH2 0xB0E JUMPI PUSH1 0x0 DUP2 DUP2 MSTORE PUSH1 0x20 DUP2 KECCAK256 PUSH1 0x1F DUP6 ADD PUSH1 0x5 SHR DUP2 ADD PUSH1 0x20 DUP7 LT ISZERO PUSH2 0xAEB JUMPI POP DUP1 JUMPDEST PUSH1 0x1F DUP6 ADD PUSH1 0x5 SHR DUP3 ADD SWAP2 POP JUMPDEST DUP2 DUP2 LT ISZERO PUSH2 0xB0A JUMPI DUP3 DUP2 SSTORE PUSH1 0x1 ADD PUSH2 0xAF7 JUMP JUMPDEST POP POP POP JUMPDEST POP POP POP JUMP JUMPDEST DUP2 MLOAD PUSH8 0xFFFFFFFFFFFFFFFF DUP2 GT ISZERO PUSH2 0xB2D JUMPI PUSH2 0xB2D PUSH2 0x853 JUMP JUMPDEST PUSH2 0xB41 DUP2 PUSH2 0xB3B DUP5 SLOAD PUSH2 0xA90 JUMP JUMPDEST DUP5 PUSH2 0xAC4 JUMP JUMPDEST PUSH1 0x20 DUP1 PUSH1 0x1F DUP4 GT PUSH1 0x1 DUP2 EQ PUSH2 0xB76 JUMPI PUSH1 0x0 DUP5 ISZERO PUSH2 0xB5E JUMPI POP DUP6 DUP4 ADD MLOAD JUMPDEST PUSH1 0x0 NOT PUSH1 0x3 DUP7 SWAP1 SHL SHR NOT AND PUSH1 0x1 DUP6 SWAP1 SHL OR DUP6 SSTORE PUSH2 0xB0A JUMP JUMPDEST PUSH1 0x0 DUP6 DUP2 MSTORE PUSH1 0x20 DUP2 KECCAK256 PUSH1 0x1F NOT DUP7 AND SWAP2 JUMPDEST DUP3 DUP2 LT ISZERO PUSH2 0xBA5 JUMPI DUP9 DUP7 ADD MLOAD DUP3 SSTORE SWAP5 DUP5 ADD SWAP5 PUSH1 0x1 SWAP1 SWAP2 ADD SWAP1 DUP5 ADD PUSH2 0xB86 JUMP JUMPDEST POP DUP6 DUP3 LT ISZERO PUSH2 0xBC3 JUMPI DUP8 DUP6 ADD MLOAD PUSH1 0x0 NOT PUSH1 0x3 DUP9 SWAP1 SHL PUSH1 0xF8 AND SHR NOT AND DUP2 SSTORE JUMPDEST POP POP POP POP POP PUSH1 0x1 SWAP1 DUP2 SHL ADD SWAP1 SSTORE POP JUMP INVALID LOG2 PUSH5 0x6970667358 0x22 SLT KECCAK256 PUSH2 0x133D SWAP4 0xF6 LOG0 CHAINID DUP16 CODESIZE PUSH6 0x30DACD78C7FA DUP12 SMOD SIGNEXTEND 0x1F JUMPI 0xAC PUSH30 0x537FFBDE24B99C4AEC64736F6C6343000814003300000000000000000000 "},"methodIdentifiers":{"confirmReceived(uint256)":"27dac36d","createProduct(string)":"02ec06be","getProductStatus(uint256)":"13f6b1bb","isProductDelivered(uint256)":"ae8d9081","isProductReceived(uint256)":"7e793c46","markDelivered(uint256)":"eb826a5f","productCount()":"e0f6ef87","products(uint256)":"7acc0b20","roleRegistry()":"08c73259"}}}}}