{
  "_format": "hh-sol-artifact-1",
  "contractName": "LetterOfCredit",
  "sourceName": "contracts/business/LetterOfCredit.sol",
  "abi": [
    {
      "inputs": [
        {
          "internalType": "address",
          "name": "usdAddress",
          "type": "address"
        },
        {
          "internalType": "address",
          "name": "roleRegistryAddress",
          "type": "address"
        },
        {
          "internalType": "address",
          "name": "supplyChainAddress",
          "type": "address"
        }
      ],
      "stateMutability": "nonpayable",
      "type": "constructor"
    },
    {
      "anonymous": false,
      "inputs": [
        {
          "indexed": false,
          "internalType": "uint256",
          "name": "lcId",
          "type": "uint256"
        }
      ],
      "name": "LCApproved",
      "type": "event"
    },
    {
      "anonymous": false,
      "inputs": [
        {
          "indexed": false,
          "internalType": "uint256",
          "name": "lcId",
          "type": "uint256"
        }
      ],
      "name": "LCCreated",
      "type": "event"
    },
    {
      "anonymous": false,
      "inputs": [
        {
          "indexed": false,
          "internalType": "uint256",
          "name": "lcId",
          "type": "uint256"
        }
      ],
      "name": "LCDeliveredConfirmed",
      "type": "event"
    },
    {
      "anonymous": false,
      "inputs": [
        {
          "indexed": false,
          "internalType": "uint256",
          "name": "lcId",
          "type": "uint256"
        }
      ],
      "name": "LCDeliveredPending",
      "type": "event"
    },
    {
      "anonymous": false,
      "inputs": [
        {
          "indexed": false,
          "internalType": "uint256",
          "name": "lcId",
          "type": "uint256"
        },
        {
          "indexed": false,
          "internalType": "address",
          "name": "by",
          "type": "address"
        }
      ],
      "name": "LCDisputed",
      "type": "event"
    },
    {
      "anonymous": false,
      "inputs": [
        {
          "indexed": false,
          "internalType": "uint256",
          "name": "lcId",
          "type": "uint256"
        }
      ],
      "name": "LCPaid",
      "type": "event"
    },
    {
      "anonymous": false,
      "inputs": [
        {
          "indexed": false,
          "internalType": "uint256",
          "name": "lcId",
          "type": "uint256"
        },
        {
          "indexed": false,
          "internalType": "bool",
          "name": "approved",
          "type": "bool"
        }
      ],
      "name": "LCResolved",
      "type": "event"
    },
    {
      "anonymous": false,
      "inputs": [
        {
          "indexed": false,
          "internalType": "uint256",
          "name": "lcId",
          "type": "uint256"
        }
      ],
      "name": "LCShipped",
      "type": "event"
    },
    {
      "inputs": [],
      "name": "BANK_APPROVAL_DEADLINE",
      "outputs": [
        {
          "internalType": "uint256",
          "name": "",
          "type": "uint256"
        }
      ],
      "stateMutability": "view",
      "type": "function"
    },
    {
      "inputs": [],
      "name": "DELIVERY_CONFIRM_DEADLINE",
      "outputs": [
        {
          "internalType": "uint256",
          "name": "",
          "type": "uint256"
        }
      ],
      "stateMutability": "view",
      "type": "function"
    },
    {
      "inputs": [
        {
          "internalType": "uint256",
          "name": "lcId",
          "type": "uint256"
        }
      ],
      "name": "approveLC",
      "outputs": [],
      "stateMutability": "nonpayable",
      "type": "function"
    },
    {
      "inputs": [
        {
          "internalType": "uint256",
          "name": "lcId",
          "type": "uint256"
        }
      ],
      "name": "confirmDelivered",
      "outputs": [],
      "stateMutability": "nonpayable",
      "type": "function"
    },
    {
      "inputs": [
        {
          "internalType": "uint256",
          "name": "lcId",
          "type": "uint256"
        }
      ],
      "name": "confirmShipment",
      "outputs": [],
      "stateMutability": "nonpayable",
      "type": "function"
    },
    {
      "inputs": [],
      "name": "lcCounter",
      "outputs": [
        {
          "internalType": "uint256",
          "name": "",
          "type": "uint256"
        }
      ],
      "stateMutability": "view",
      "type": "function"
    },
    {
      "inputs": [
        {
          "internalType": "uint256",
          "name": "",
          "type": "uint256"
        }
      ],
      "name": "lcs",
      "outputs": [
        {
          "internalType": "uint256",
          "name": "productId",
          "type": "uint256"
        },
        {
          "internalType": "address",
          "name": "buyer",
          "type": "address"
        },
        {
          "internalType": "address",
          "name": "seller",
          "type": "address"
        },
        {
          "internalType": "address",
          "name": "bank",
          "type": "address"
        },
        {
          "internalType": "uint256",
          "name": "amount",
          "type": "uint256"
        },
        {
          "internalType": "enum LetterOfCredit.LCStatus",
          "name": "status",
          "type": "uint8"
        },
        {
          "internalType": "uint256",
          "name": "openedAt",
          "type": "uint256"
        },
        {
          "internalType": "uint256",
          "name": "approvedAt",
          "type": "uint256"
        },
        {
          "internalType": "uint256",
          "name": "deliveredAt",
          "type": "uint256"
        },
        {
          "internalType": "bool",
          "name": "disputeRaised",
          "type": "bool"
        }
      ],
      "stateMutability": "view",
      "type": "function"
    },
    {
      "inputs": [
        {
          "internalType": "uint256",
          "name": "lcId",
          "type": "uint256"
        }
      ],
      "name": "markDeliveredPending",
      "outputs": [],
      "stateMutability": "nonpayable",
      "type": "function"
    },
    {
      "inputs": [
        {
          "internalType": "uint256",
          "name": "productId",
          "type": "uint256"
        },
        {
          "internalType": "address",
          "name": "seller",
          "type": "address"
        },
        {
          "internalType": "uint256",
          "name": "amount",
          "type": "uint256"
        }
      ],
      "name": "openLC",
      "outputs": [],
      "stateMutability": "nonpayable",
      "type": "function"
    },
    {
      "inputs": [
        {
          "internalType": "uint256",
          "name": "lcId",
          "type": "uint256"
        }
      ],
      "name": "raiseDispute",
      "outputs": [],
      "stateMutability": "nonpayable",
      "type": "function"
    },
    {
      "inputs": [
        {
          "internalType": "uint256",
          "name": "lcId",
          "type": "uint256"
        }
      ],
      "name": "releasePayment",
      "outputs": [],
      "stateMutability": "nonpayable",
      "type": "function"
    },
    {
      "inputs": [
        {
          "internalType": "uint256",
          "name": "lcId",
          "type": "uint256"
        },
        {
          "internalType": "bool",
          "name": "approve",
          "type": "bool"
        }
      ],
      "name": "resolveDispute",
      "outputs": [],
      "stateMutability": "nonpayable",
      "type": "function"
    },
    {
      "inputs": [],
      "name": "roleRegistry",
      "outputs": [
        {
          "internalType": "contract IRoleRegistry",
          "name": "",
          "type": "address"
        }
      ],
      "stateMutability": "view",
      "type": "function"
    },
    {
      "inputs": [],
      "name": "supplyChain",
      "outputs": [
        {
          "internalType": "contract ISupplyChain",
          "name": "",
          "type": "address"
        }
      ],
      "stateMutability": "view",
      "type": "function"
    },
    {
      "inputs": [],
      "name": "usdToken",
      "outputs": [
        {
          "internalType": "contract USDToken",
          "name": "",
          "type": "address"
        }
      ],
      "stateMutability": "view",
      "type": "function"
    }
  ],
  "bytecode": "0x608060405234801561001057600080fd5b5060405161126238038061126283398101604081905261002f9161008d565b600280546001600160a01b039485166001600160a01b0319918216179091556000805493851693821693909317909255600180549190931691161790556100d0565b80516001600160a01b038116811461008857600080fd5b919050565b6000806000606084860312156100a257600080fd5b6100ab84610071565b92506100b960208501610071565b91506100c760408501610071565b90509250925092565b611183806100df6000396000f3fe608060405234801561001057600080fd5b50600436106100f55760003560e01c806334b25ee211610097578063a5c1674e11610066578063a5c1674e14610255578063e0cb8e5f14610268578063f897a22b1461027b578063faf089061461028e57600080fd5b806334b25ee21461021257806358f499331461022557806388685cd91461022f57806388d84b661461024257600080fd5b80631969048d116100d35780631969048d1461015257806328da13ea1461016a5780632b05e5d61461017d5780632b9ec8d21461018657600080fd5b8063018c9605146100fa57806308c732591461010f5780630fc38bd61461013f575b600080fd5b61010d610108366004610f6f565b6102a1565b005b600054610122906001600160a01b031681565b6040516001600160a01b0390911681526020015b60405180910390f35b61010d61014d366004610fb3565b610580565b61015c62093a8081565b604051908152602001610136565b61010d610178366004610fb3565b6106e1565b61015c60045481565b6101fc610194366004610fb3565b6003602081905260009182526040909120805460018201546002830154938301546004840154600585015460068601546007870154600888015460099098015496986001600160a01b0396871698908716979590961695939460ff938416949293919291168a565b6040516101369a99989796959493929190610fe2565b61010d610220366004611061565b610887565b61015c6203f48081565b61010d61023d366004610fb3565b61098a565b600154610122906001600160a01b031681565b61010d610263366004610fb3565b610b2c565b61010d610276366004610fb3565b610c5f565b600254610122906001600160a01b031681565b61010d61029c366004610fb3565b610d4f565b6000546040516395a8c58d60e01b81526001600160a01b03909116906395a8c58d906102d39033906004908101611091565b602060405180830381865afa1580156102f0573d6000803e3d6000fd5b505050506040513d601f19601f8201168201806040525081019061031491906110be565b6103555760405162461bcd60e51b815260206004820152600d60248201526c27b7363c9024b6b837b93a32b960991b60448201526064015b60405180910390fd5b6000546040516395a8c58d60e01b81526001600160a01b03909116906395a8c58d90610388908590600390600401611091565b602060405180830381865afa1580156103a5573d6000803e3d6000fd5b505050506040513d601f19601f820116820180604052508101906103c991906110be565b61040b5760405162461bcd60e51b815260206004820152601360248201527229b2b63632b9103737ba1022bc3837b93a32b960691b604482015260640161034c565b6004805490600061041b836110f8565b909155505060408051610140810182528481523360208083019182526001600160a01b038681168486019081526000606086018181526080870189815260a088018381524260c08a015260e089018490526101008901849052610120890184905260048054855260039788905299909320885181559651600180890180549288166001600160a01b03199384161790559451600289018054918816918316919091179055915195870180549690951695909116949094179092559151948301949094559251600582018054939492939192909160ff19169083600781111561050557610505610fcc565b021790555060c0820151600682015560e082015160078201556101008201516008820155610120909101516009909101805460ff19169115159190911790556004546040519081527f9c592e711bab77b5c08dc9658696db3ad7569012e480979945500ae854d6e5c8906020015b60405180910390a1505050565b600081815260036020526040808220915490516395a8c58d60e01b81526001600160a01b03909116906395a8c58d906105c0903390600590600401611091565b602060405180830381865afa1580156105dd573d6000803e3d6000fd5b505050506040513d601f19601f8201168201806040525081019061060191906110be565b61063e5760405162461bcd60e51b815260206004820152600e60248201526d4f6e6c79204c6f6769737469637360901b604482015260640161034c565b6002600582015460ff16600781111561065957610659610fcc565b146106945760405162461bcd60e51b815260206004820152600b60248201526a139bdd081cda1a5c1c195960aa1b604482015260640161034c565b60058101805460ff191660031790554260088201556040518281527f7ef8ba2dff886c444a66271ecb90b2cfe169ccbdaf8f9e813f4fa574184f413d906020015b60405180910390a15050565b600081815260036020526040808220915490516395a8c58d60e01b81526001600160a01b03909116906395a8c58d90610721903390600290600401611091565b602060405180830381865afa15801561073e573d6000803e3d6000fd5b505050506040513d601f19601f8201168201806040525081019061076291906110be565b61077e5760405162461bcd60e51b815260040161034c90611111565b6000600582015460ff16600781111561079957610799610fcc565b146107d65760405162461bcd60e51b815260206004820152600d60248201526c496e76616c696420737461746560981b604482015260640161034c565b6203f48081600601546107e99190611134565b42111561082e5760405162461bcd60e51b8152602060048201526013602482015272105c1c1c9bdd985b0814d310481b5a5cdcd959606a1b604482015260640161034c565b6003810180546001600160a01b0319163317905560058101805460ff191660011790554260078201556040518281527f1557e58e49695170ad90788e46089f24cc20962bb9167a13c0aa847731e54915906020016106d5565b6000828152600360208190526040909120908101546001600160a01b031633146108c35760405162461bcd60e51b815260040161034c90611111565b60058082015460ff1660078111156108dd576108dd610fcc565b1461091d5760405162461bcd60e51b815260206004820152601060248201526f4e6f7420756e6465722072657669657760801b604482015260640161034c565b60098101805460ff1916905581156109435760058101805460ff19166004179055610953565b60058101805460ff191660071790555b6040805184815283151560208201527f6c7759aefc24e876f9b70c54d295cd495899de2f2f291850cf7246937221a2699101610573565b6000818152600360208190526040909120908101546001600160a01b031633146109c65760405162461bcd60e51b815260040161034c90611111565b6004600582015460ff1660078111156109e1576109e1610fcc565b14610a1e5760405162461bcd60e51b815260206004820152600d60248201526c139bdd0818dbdb999a5c9b5959609a1b604482015260640161034c565b60058101805460ff19166006179055600280546001830154918301546004808501546040516323b872dd60e01b81526001600160a01b0395861692810192909252918416602482015260448101919091529116906323b872dd906064016020604051808303816000875af1158015610a9a573d6000803e3d6000fd5b505050506040513d601f19601f82011682018060405250810190610abe91906110be565b610afc5760405162461bcd60e51b815260206004820152600f60248201526e151c985b9cd9995c8819985a5b1959608a1b604482015260640161034c565b6040518281527f52f6772edc4d67cfa11d7f2ccb4b4bac8a684682ed7de3419da20892fb8c8590906020016106d5565b600081815260036020526040902060018101546001600160a01b0316331480610b61575060028101546001600160a01b031633145b80610b78575060038101546001600160a01b031633145b610bb35760405162461bcd60e51b815260206004820152600c60248201526b4e6f74204c4320706172747960a01b604482015260640161034c565b6006600582015460ff166007811115610bce57610bce610fcc565b03610c0a5760405162461bcd60e51b815260206004820152600c60248201526b105b1c9958591e481c185a5960a21b604482015260640161034c565b6005818101805460ff1990811690921790556009820180549091166001179055604080518381523360208201527f59fea152ae61a6a6afbcd1d79c5526a69051cbf1bdbd6533bb1a9be84106d67191016106d5565b600081815260036020526040902060028101546001600160a01b03163314610cb95760405162461bcd60e51b815260206004820152600d60248201526c27b7363c9022bc3837b93a32b960991b604482015260640161034c565b6001600582015460ff166007811115610cd457610cd4610fcc565b14610d105760405162461bcd60e51b815260206004820152600c60248201526b139bdd08185c1c1c9bdd995960a21b604482015260640161034c565b60058101805460ff191660021790556040518281527ff5ebef5cf9627b8f8037dcf2bf6e86bad80aeb366fe186f69a2d98d760f54e0b906020016106d5565b600081815260036020526040902060018101546001600160a01b0316331480610d84575060038101546001600160a01b031633145b610dc85760405162461bcd60e51b81526020600482015260156024820152744f6e6c7920496d706f72746572206f722042616e6b60581b604482015260640161034c565b6003600582015460ff166007811115610de357610de3610fcc565b14610e205760405162461bcd60e51b815260206004820152600d60248201526c496e76616c696420737461746560981b604482015260640161034c565b62093a808160080154610e339190611134565b421115610e785760405162461bcd60e51b815260206004820152601360248201527211195b1a5d995c9e4814d310481b5a5cdcd959606a1b604482015260640161034c565b6001548154604051633f3c9e2360e11b81526001600160a01b0390921691637e793c4691610eac9160040190815260200190565b602060405180830381865afa158015610ec9573d6000803e3d6000fd5b505050506040513d601f19601f82011682018060405250810190610eed91906110be565b610f305760405162461bcd60e51b8152602060048201526014602482015273141c9bd91d58dd081b9bdd081c9958d95a5d995960621b604482015260640161034c565b60058101805460ff191660041790556040518281527ffd0e13884d3f538dcded63a4e2c3b3ff4a3a34615d9b53e549778b6d4d56031d906020016106d5565b600080600060608486031215610f8457600080fd5b8335925060208401356001600160a01b0381168114610fa257600080fd5b929592945050506040919091013590565b600060208284031215610fc557600080fd5b5035919050565b634e487b7160e01b600052602160045260246000fd5b8a81526001600160a01b038a811660208301528981166040830152881660608201526080810187905261014081016008871061102057611020610fcc565b60a082019690965260c081019490945260e084019290925261010083015215156101209091015295945050505050565b801515811461105e57600080fd5b50565b6000806040838503121561107457600080fd5b82359150602083013561108681611050565b809150509250929050565b6001600160a01b038316815260408101600683106110b1576110b1610fcc565b8260208301529392505050565b6000602082840312156110d057600080fd5b81516110db81611050565b9392505050565b634e487b7160e01b600052601160045260246000fd5b60006001820161110a5761110a6110e2565b5060010190565b6020808252600990820152684f6e6c792042616e6b60b81b604082015260600190565b80820180821115611147576111476110e2565b9291505056fea26469706673582212202f6186194be9bba4f81e22174ae70bcc8c4c6395860cda8e0d53516e4f1dc1ba64736f6c63430008140033",
  "linkReferences": {},
  "deployedLinkReferences": {}
}