{
  "_format": "hh-sol-artifact-1",
  "contractName": "RoleRegistry",
  "sourceName": "contracts/core/RoleRegistry.sol",
  "abi": [
    {
      "inputs": [],
      "stateMutability": "nonpayable",
      "type": "constructor"
    },
    {
      "anonymous": false,
      "inputs": [
        {
          "indexed": true,
          "internalType": "address",
          "name": "account",
          "type": "address"
        },
        {
          "indexed": true,
          "internalType": "enum IRoleRegistry.Role",
          "name": "role",
          "type": "uint8"
        },
        {
          "indexed": true,
          "internalType": "address",
          "name": "grantedBy",
          "type": "address"
        },
        {
          "indexed": false,
          "internalType": "uint256",
          "name": "timestamp",
          "type": "uint256"
        }
      ],
      "name": "RoleGranted",
      "type": "event"
    },
    {
      "anonymous": false,
      "inputs": [
        {
          "indexed": true,
          "internalType": "address",
          "name": "account",
          "type": "address"
        },
        {
          "indexed": true,
          "internalType": "enum IRoleRegistry.Role",
          "name": "oldRole",
          "type": "uint8"
        },
        {
          "indexed": true,
          "internalType": "address",
          "name": "revokedBy",
          "type": "address"
        },
        {
          "indexed": false,
          "internalType": "uint256",
          "name": "timestamp",
          "type": "uint256"
        }
      ],
      "name": "RoleRevoked",
      "type": "event"
    },
    {
      "inputs": [],
      "name": "admin",
      "outputs": [
        {
          "internalType": "address",
          "name": "",
          "type": "address"
        }
      ],
      "stateMutability": "view",
      "type": "function"
    },
    {
      "inputs": [
        {
          "internalType": "address",
          "name": "account",
          "type": "address"
        }
      ],
      "name": "getRole",
      "outputs": [
        {
          "internalType": "enum IRoleRegistry.Role",
          "name": "",
          "type": "uint8"
        }
      ],
      "stateMutability": "view",
      "type": "function"
    },
    {
      "inputs": [
        {
          "internalType": "address",
          "name": "account",
          "type": "address"
        },
        {
          "internalType": "enum IRoleRegistry.Role",
          "name": "role",
          "type": "uint8"
        }
      ],
      "name": "grantRole",
      "outputs": [],
      "stateMutability": "nonpayable",
      "type": "function"
    },
    {
      "inputs": [
        {
          "internalType": "address",
          "name": "account",
          "type": "address"
        },
        {
          "internalType": "enum IRoleRegistry.Role",
          "name": "role",
          "type": "uint8"
        }
      ],
      "name": "hasRole",
      "outputs": [
        {
          "internalType": "bool",
          "name": "",
          "type": "bool"
        }
      ],
      "stateMutability": "view",
      "type": "function"
    },
    {
      "inputs": [
        {
          "internalType": "address",
          "name": "account",
          "type": "address"
        }
      ],
      "name": "isBank",
      "outputs": [
        {
          "internalType": "bool",
          "name": "",
          "type": "bool"
        }
      ],
      "stateMutability": "view",
      "type": "function"
    },
    {
      "inputs": [
        {
          "internalType": "address",
          "name": "account",
          "type": "address"
        }
      ],
      "name": "isExporter",
      "outputs": [
        {
          "internalType": "bool",
          "name": "",
          "type": "bool"
        }
      ],
      "stateMutability": "view",
      "type": "function"
    },
    {
      "inputs": [
        {
          "internalType": "address",
          "name": "account",
          "type": "address"
        }
      ],
      "name": "isImporter",
      "outputs": [
        {
          "internalType": "bool",
          "name": "",
          "type": "bool"
        }
      ],
      "stateMutability": "view",
      "type": "function"
    },
    {
      "inputs": [
        {
          "internalType": "address",
          "name": "account",
          "type": "address"
        }
      ],
      "name": "isLogistics",
      "outputs": [
        {
          "internalType": "bool",
          "name": "",
          "type": "bool"
        }
      ],
      "stateMutability": "view",
      "type": "function"
    },
    {
      "inputs": [
        {
          "internalType": "address",
          "name": "account",
          "type": "address"
        }
      ],
      "name": "revokeRole",
      "outputs": [],
      "stateMutability": "nonpayable",
      "type": "function"
    }
  ],
  "bytecode": "0x608060405234801561001057600080fd5b50600180546001600160a01b0319163390811782556000908152602081905260409020805460ff19168280021790555033600160405142815233907f06e3a091ee85ac118b2ce886e8b1590e9c90a81020629380cab4696197bd580d9060200160405180910390a461060d806100876000396000f3fe608060405234801561001057600080fd5b50600436106100935760003560e01c8063848d177911610066578063848d17791461012557806395a8c58d14610138578063dc5610ed1461014b578063ec676a491461015e578063f851a4401461017157600080fd5b80633e8402361461009857806344276733146100ad57806380e52e3f146100ef5780638305866f14610102575b600080fd5b6100ab6100a636600461053c565b61019c565b005b6100d96100bb366004610577565b6001600160a01b031660009081526020819052604090205460ff1690565b6040516100e691906105af565b60405180910390f35b6100ab6100fd366004610577565b610368565b610115610110366004610577565b610483565b60405190151581526020016100e6565b610115610133366004610577565b6104bc565b61011561014636600461053c565b6104c5565b610115610159366004610577565b61050e565b61011561016c366004610577565b610517565b600154610184906001600160a01b031681565b6040516001600160a01b0390911681526020016100e6565b6001546001600160a01b031633146101e85760405162461bcd60e51b815260206004820152600a60248201526927b7363c9030b236b4b760b11b60448201526064015b60405180910390fd5b6001600160a01b0382166102305760405162461bcd60e51b815260206004820152600f60248201526e496e76616c6964206164647265737360881b60448201526064016101df565b600281600581111561024457610244610599565b14806102615750600381600581111561025f5761025f610599565b145b8061027d5750600481600581111561027b5761027b610599565b145b806102995750600581600581111561029757610297610599565b145b6102d45760405162461bcd60e51b815260206004820152600c60248201526b496e76616c696420726f6c6560a01b60448201526064016101df565b6001600160a01b0382166000908152602081905260409020805482919060ff1916600183600581111561030957610309610599565b02179055503381600581111561032157610321610599565b836001600160a01b03167f06e3a091ee85ac118b2ce886e8b1590e9c90a81020629380cab4696197bd580d4260405161035c91815260200190565b60405180910390a45050565b6001546001600160a01b031633146103af5760405162461bcd60e51b815260206004820152600a60248201526927b7363c9030b236b4b760b11b60448201526064016101df565b6001600160a01b03811660009081526020819052604081205460ff16908160058111156103de576103de610599565b036104155760405162461bcd60e51b81526020600482015260076024820152664e6f20726f6c6560c81b60448201526064016101df565b6001600160a01b0382166000908152602081905260409020805460ff191690553381600581111561044857610448610599565b836001600160a01b03167ff74251865f7e2dd2fd235ea65029093ae550a3bf3f7ae489f9b18c3dde9ef9c64260405161035c91815260200190565b600060055b6001600160a01b03831660009081526020819052604090205460ff1660058111156104b5576104b5610599565b1492915050565b60006004610488565b60008160058111156104d9576104d9610599565b6001600160a01b03841660009081526020819052604090205460ff16600581111561050657610506610599565b149392505050565b60006003610488565b60006002610488565b80356001600160a01b038116811461053757600080fd5b919050565b6000806040838503121561054f57600080fd5b61055883610520565b915060208301356006811061056c57600080fd5b809150509250929050565b60006020828403121561058957600080fd5b61059282610520565b9392505050565b634e487b7160e01b600052602160045260246000fd5b60208101600683106105d157634e487b7160e01b600052602160045260246000fd5b9190529056fea2646970667358221220a930321ba0f3befdf555c154eae807c2857d22d6382c3f6127a870f96fdb891d64736f6c63430008140033",
  "linkReferences": {},
  "deployedLinkReferences": {}
}