{
  "_format": "hh-sol-artifact-1",
  "contractName": "SupplyChain",
  "sourceName": "contracts/business/SupplyChain.sol",
  "abi": [
    {
      "inputs": [
        {
          "internalType": "address",
          "name": "registry",
          "type": "address"
        }
      ],
      "stateMutability": "nonpayable",
      "type": "constructor"
    },
    {
      "anonymous": false,
      "inputs": [
        {
          "indexed": true,
          "internalType": "uint256",
          "name": "productId",
          "type": "uint256"
        },
        {
          "indexed": true,
          "internalType": "address",
          "name": "buyer",
          "type": "address"
        },
        {
          "indexed": false,
          "internalType": "uint256",
          "name": "timestamp",
          "type": "uint256"
        }
      ],
      "name": "ProductDelivered",
      "type": "event"
    },
    {
      "anonymous": false,
      "inputs": [
        {
          "indexed": true,
          "internalType": "uint256",
          "name": "productId",
          "type": "uint256"
        },
        {
          "indexed": true,
          "internalType": "address",
          "name": "buyer",
          "type": "address"
        },
        {
          "indexed": false,
          "internalType": "uint256",
          "name": "timestamp",
          "type": "uint256"
        }
      ],
      "name": "ProductReceived",
      "type": "event"
    },
    {
      "inputs": [
        {
          "internalType": "uint256",
          "name": "productId",
          "type": "uint256"
        }
      ],
      "name": "confirmReceived",
      "outputs": [],
      "stateMutability": "nonpayable",
      "type": "function"
    },
    {
      "inputs": [
        {
          "internalType": "string",
          "name": "name",
          "type": "string"
        }
      ],
      "name": "createProduct",
      "outputs": [
        {
          "internalType": "uint256",
          "name": "",
          "type": "uint256"
        }
      ],
      "stateMutability": "nonpayable",
      "type": "function"
    },
    {
      "inputs": [
        {
          "internalType": "uint256",
          "name": "id",
          "type": "uint256"
        }
      ],
      "name": "getProductStatus",
      "outputs": [
        {
          "internalType": "enum ISupplyChain.ProductStatus",
          "name": "",
          "type": "uint8"
        }
      ],
      "stateMutability": "view",
      "type": "function"
    },
    {
      "inputs": [
        {
          "internalType": "uint256",
          "name": "id",
          "type": "uint256"
        }
      ],
      "name": "isProductDelivered",
      "outputs": [
        {
          "internalType": "bool",
          "name": "",
          "type": "bool"
        }
      ],
      "stateMutability": "view",
      "type": "function"
    },
    {
      "inputs": [
        {
          "internalType": "uint256",
          "name": "id",
          "type": "uint256"
        }
      ],
      "name": "isProductReceived",
      "outputs": [
        {
          "internalType": "bool",
          "name": "",
          "type": "bool"
        }
      ],
      "stateMutability": "view",
      "type": "function"
    },
    {
      "inputs": [
        {
          "internalType": "uint256",
          "name": "productId",
          "type": "uint256"
        }
      ],
      "name": "markDelivered",
      "outputs": [],
      "stateMutability": "nonpayable",
      "type": "function"
    },
    {
      "inputs": [],
      "name": "productCount",
      "outputs": [
        {
          "internalType": "uint256",
          "name": "",
          "type": "uint256"
        }
      ],
      "stateMutability": "view",
      "type": "function"
    },
    {
      "inputs": [
        {
          "internalType": "uint256",
          "name": "",
          "type": "uint256"
        }
      ],
      "name": "products",
      "outputs": [
        {
          "internalType": "uint256",
          "name": "id",
          "type": "uint256"
        },
        {
          "internalType": "string",
          "name": "name",
          "type": "string"
        },
        {
          "internalType": "address",
          "name": "importer",
          "type": "address"
        },
        {
          "internalType": "enum ISupplyChain.ProductStatus",
          "name": "status",
          "type": "uint8"
        },
        {
          "internalType": "uint256",
          "name": "createdAt",
          "type": "uint256"
        },
        {
          "internalType": "uint256",
          "name": "lastUpdated",
          "type": "uint256"
        }
      ],
      "stateMutability": "view",
      "type": "function"
    },
    {
      "inputs": [],
      "name": "roleRegistry",
      "outputs": [
        {
          "internalType": "contract IRoleRegistry",
          "name": "",
          "type": "address"
        }
      ],
      "stateMutability": "view",
      "type": "function"
    }
  ],
  "bytecode": "0x608060405234801561001057600080fd5b50604051610c9c380380610c9c83398101604081905261002f91610054565b600080546001600160a01b0319166001600160a01b0392909216919091179055610084565b60006020828403121561006657600080fd5b81516001600160a01b038116811461007d57600080fd5b9392505050565b610c09806100936000396000f3fe608060405234801561001057600080fd5b50600436106100935760003560e01c80637acc0b20116100665780637acc0b20146101385780637e793c461461015d578063ae8d908114610180578063e0f6ef8714610193578063eb826a5f1461019c57600080fd5b806302ec06be1461009857806308c73259146100be57806313f6b1bb146100e957806327dac36d14610123575b600080fd5b6100ab6100a6366004610869565b6101af565b6040519081526020015b60405180910390f35b6000546100d1906001600160a01b031681565b6040516001600160a01b0390911681526020016100b5565b6101166100f736600461091a565b600090815260016020526040902060020154600160a01b900460ff1690565b6040516100b5919061095d565b61013661013136600461091a565b610348565b005b61014b61014636600461091a565b610555565b6040516100b596959493929190610971565b61017061016b36600461091a565b610621565b60405190151581526020016100b5565b61017061018e36600461091a565b610656565b6100ab60025481565b6101366101aa36600461091a565b6106ab565b600080546040516395a8c58d60e01b81526004916001600160a01b0316906395a8c58d906101e2903390859081016109f6565b602060405180830381865afa1580156101ff573d6000803e3d6000fd5b505050506040513d601f19601f820116820180604052508101906102239190610a23565b6102485760405162461bcd60e51b815260040161023f90610a45565b60405180910390fd5b600280546000918261025983610a69565b9190505590506040518060c00160405280828152602001858152602001336001600160a01b031681526020016000600281111561029857610298610933565b815242602080830182905260409283019190915260008481526001808352929020835181559083015190918201906102d09082610b13565b506040820151600280830180546001600160a01b039093166001600160a01b031984168117825560608601519391926001600160a81b03199092161790600160a01b90849081111561032457610324610933565b02179055506080820151600382015560a09091015160049091015591505b50919050565b6000546040516395a8c58d60e01b81526004916001600160a01b0316906395a8c58d9061037a903390859081016109f6565b602060405180830381865afa158015610397573d6000803e3d6000fd5b505050506040513d601f19601f820116820180604052508101906103bb9190610a23565b6103d75760405162461bcd60e51b815260040161023f90610a45565b81600254811061041d5760405162461bcd60e51b8152602060048201526011602482015270141c9bd91d58dd081b9bdd08195e1a5cdd607a1b604482015260640161023f565b60008381526001602052604090206002015483906001600160a01b0316331461047f5760405162461bcd60e51b81526020600482015260146024820152732737ba10383937b23ab1ba1034b6b837b93a32b960611b604482015260640161023f565b600084815260016020819052604090912090600282810154600160a01b900460ff16908111156104b1576104b1610933565b146104ee5760405162461bcd60e51b815260206004820152600d60248201526c139bdd0819195b1a5d995c9959609a1b604482015260640161023f565b600281018054600160a11b60ff60a01b1982161790915542600483018190556040519081526001600160a01b039091169086907f15bbac4e671dd682bb8ba3a70a971537f9650428222e657dd6e706a9d3fcf0f29060200160405180910390a35050505050565b60016020819052600091825260409091208054918101805461057690610a90565b80601f01602080910402602001604051908101604052809291908181526020018280546105a290610a90565b80156105ef5780601f106105c4576101008083540402835291602001916105ef565b820191906000526020600020905b8154815290600101906020018083116105d257829003601f168201915b505050506002830154600384015460049094015492936001600160a01b03821693600160a01b90920460ff1692509086565b6000818152600160205260408120600290810154600160a01b900460ff168181111561064f5761064f610933565b1492915050565b6000818152600160208190526040822060020154600160a01b900460ff169081600281111561068757610687610933565b14806106a4575060028160028111156106a2576106a2610933565b145b9392505050565b6000546040516395a8c58d60e01b81526005916001600160a01b0316906395a8c58d906106de90339085906004016109f6565b602060405180830381865afa1580156106fb573d6000803e3d6000fd5b505050506040513d601f19601f8201168201806040525081019061071f9190610a23565b61073b5760405162461bcd60e51b815260040161023f90610a45565b8160025481106107815760405162461bcd60e51b8152602060048201526011602482015270141c9bd91d58dd081b9bdd08195e1a5cdd607a1b604482015260640161023f565b600083815260016020526040812090600282810154600160a01b900460ff16908111156107b0576107b0610933565b146107ed5760405162461bcd60e51b815260206004820152600d60248201526c496e76616c696420737461746560981b604482015260640161023f565b600281018054600160a01b60ff60a01b1982161790915542600483018190556040519081526001600160a01b039091169085907fd49ab30b3adbc30566af251187676161cd05b11d774c70891a581b12f9c160749060200160405180910390a350505050565b634e487b7160e01b600052604160045260246000fd5b60006020828403121561087b57600080fd5b813567ffffffffffffffff8082111561089357600080fd5b818401915084601f8301126108a757600080fd5b8135818111156108b9576108b9610853565b604051601f8201601f19908116603f011681019083821181831017156108e1576108e1610853565b816040528281528760208487010111156108fa57600080fd5b826020860160208301376000928101602001929092525095945050505050565b60006020828403121561092c57600080fd5b5035919050565b634e487b7160e01b600052602160045260246000fd5b6003811061095957610959610933565b9052565b6020810161096b8284610949565b92915050565b8681526000602060c08184015287518060c085015260005b818110156109a55789810183015185820160e001528201610989565b50600060e0828601015260e0601f19601f830116850101925050506109d560408301876001600160a01b03169052565b6109e26060830186610949565b608082019390935260a00152949350505050565b6001600160a01b03831681526040810160068310610a1657610a16610933565b8260208301529392505050565b600060208284031215610a3557600080fd5b815180151581146106a457600080fd5b6020808252600a908201526957726f6e6720726f6c6560b01b604082015260600190565b600060018201610a8957634e487b7160e01b600052601160045260246000fd5b5060010190565b600181811c90821680610aa457607f821691505b60208210810361034257634e487b7160e01b600052602260045260246000fd5b601f821115610b0e57600081815260208120601f850160051c81016020861015610aeb5750805b601f850160051c820191505b81811015610b0a57828155600101610af7565b5050505b505050565b815167ffffffffffffffff811115610b2d57610b2d610853565b610b4181610b3b8454610a90565b84610ac4565b602080601f831160018114610b765760008415610b5e5750858301515b600019600386901b1c1916600185901b178555610b0a565b600085815260208120601f198616915b82811015610ba557888601518255948401946001909101908401610b86565b5085821015610bc35787850151600019600388901b60f8161c191681555b5050505050600190811b0190555056fea264697066735822122061133d93f6a0468f386530dacd78c7fa8b070b1f57ac7d537ffbde24b99c4aec64736f6c63430008140033",
  "linkReferences": {},
  "deployedLinkReferences": {}
}